:020000040000FA
:100000000C9459010C948A010C948A010C948A0175
:100010000C948A010C948A010C948A010C948A0134
:100020000C948A010C940C0D0C940C0D0C940C0D7A
:100030000C948A010C948A010C948A010C948A0114
:100040000C948A010C948A010C948A010C948A0104
:100050000C948A010C948A010C948A010C94E20A93
:100060000C948A010C94B60B0C948C0B0C948A01A2
:100070000C948A010C948A010C948A010C948A01D4
:100080000C948A010C948A010C948A010C948A01C4
:100090000C94560B0C942C0B0C948A010C94EC0BC6
:1000A0000C948A010C948A010C948A010C948A01A4
:1000B0000C948A010C948A010C948A010C948A0194
:1000C0000C948A010C948A010C948A010C948A0184
:1000D0000C948A010C948A010C948A010C948A0174
:1000E0000C948A010C94FE050C94F0020C9402030B
:1000F0000C94B1070C94B1060C9431030C941106C6
:100100000C9461060C9403090C9435030C947F0A3B
:100110000C94D5050C94B8070C94FE060C94FE02C2
:100120000C940F030C942B030C9427030C94B50729
:100130000C94B2070C9462030C9415030C94BF0743
:100140000C94F9050C943E060C94730D0C94020962
:100150000C94F6020C94EC070C9430030C9493036B
:100160000C94FA020C94E3050C9423030C94FB0505
:100170000C9419030C9405030C940B030C94F405D4
:100180000C944D060C946F060C941D030C94D30331
:1001900000002100240027002A002D003000330039
:1001A00001010000040107010A01000022002500EE
:1001B00028002B002E003100340002010000050150
:1001C00008010B01000020002300260029002C005C
:1001D0002F0032000001000003010601090105059E
:1001E0000505070508080808020202020A0A0808AD
:1001F00004040404010101010101010103030303DB
:1002000003030303040707070C0C0C0C0C0C0C0C69
:100210000202020206060606060606060B0B0B0B7A
:100220000B0B0B0B0102102020080810204010209F
:1002300040800201020108040201010204081020AA
:1002400040808040201008040201800402018040A8
:100250002010080402010804020101020408102011
:100260004080010204081020408000000A0B0209AF
:100270000C0D0E0807030401000000000000000040
:10028000000000000000000000000000000000006E
:10029000000000000000121110000000000000002B
:1002A000000000000000000000000000000000004E
:1002B000730D11241FBECFEFD1E2DEBFCDBF00E032
:1002C0000CBF15E0A0E0B2E0ECEDFCE200E00BBFFB
:1002D00002C007900D92AC30B107D9F727E0ACE02F
:1002E000B5E001C01D92A53BB207E1F711E0C9E5F9
:1002F000D1E000E006C021970109802FFE010E9495
:100300006416C835D10780E00807A9F70E94A80E37
:100310000C946C160C94000096E0899FD001112477
:10032000AB59B94F90967C936E935F9791E09196FD
:100330009C939197E091D206F091D3069091D106CB
:10034000992339F0309751F0811108C080918106CE
:100350001994309719F05C968C91FACF0895CF924A
:10036000DF92EF92FF920F931F9396E0899FF00127
:100370001124EB59F94F11A2278D30A121303105FD
:1003800051F178F02230310509F451C023303105A4
:1003900009F452C01F910F91FF90EF90DF90CF9022
:1003A00008956623B9F361E070E00E948C012FB7D5
:1003B000F8948091B8059091B905A091BA05B091D3
:1003C000BB052FBF8093BD069093BE06A093BF06CA
:1003D000B093C006DFCF9FB7F894C090B805D09017
:1003E000B905E090BA05F090BB059FBF0091BD062E
:1003F0001091BE062091BF063091C006C01AD10AE6
:10040000E20AF30A0091CF061091D00630E020E016
:100410000C151D052E053F0550F462E070E01F919C
:100420000F91FF90EF90DF90CF900C948C016111B1
:10043000B1CF63E070E0F3CF70E060E0F0CFDF9227
:10044000EF92FF920F931F93CF93DF93EC01809174
:10045000A3079091A4076981DC01ED91FC910190C3
:10046000F081E02D19958091A3079091A407DC01FC
:10047000ED91FC910190F081E02D688119958091BA
:10048000A3079091A407DC01ED91FC910190F0810C
:10049000E02D6A8119958091A3079091A407DC0152
:1004A000ED91FC910190F081E02D6B811995809187
:1004B000A3079091A407DC01ED91FC910190F081DC
:1004C000E02D6C8119958091A3079091A407DC0120
:1004D000ED91FC910190F081E02D6D811995809155
:1004E000A3079091A407DC01ED91FC910190F081AC
:1004F000E02D6E8119950F8118850E5F1F4F809139
:10050000A3079091A407E12EFF24DC01ED91FC915B
:100510000190F081E02D6E2D19958091A3079091A7
:10052000A407DC01ED91FC910190F081E02D602F9A
:1005300019950E0D1F2D111D8E81080F111DD12C27
:100540008091A3079091A407DC01ED91FC910190AB
:10055000F081E02DED2CF12C2F813885E216F30689
:1005600060F4EC0EFD1ED70119966C911995F701F8
:100570008185080F111DD394E3CF612F19958091C8
:10058000A3079091A407DC01ED91FC910190F0810B
:10059000E02D602FDF91CF911F910F91FF90EF9091
:1005A000DF9019948150823108F05AC0E82FF0E0B2
:1005B0008827E252FD4F8F4F0C946416FE0202030F
:1005C000F002F602FA02300305030B030F031503D2
:1005D00019031D032303270330032B0331033503C2
:1005E000809180008F7780938000089580918000B3
:1005F0008F7DF9CF80918000877FF5CF84B58F778D
:1006000084BD089584B58F7DFBCF8091B0008F7736
:100610008093B00008958091B0008F7DF9CF8091D4
:1006200090008F77809390000895809190008F7D47
:10063000F9CF80919000877FF5CF8091A0008F77D0
:100640008093A00008958091A0008F7DF9CF8091C4
:10065000A000877FF5CF809120018F7780932001C4
:100660000895809120018F7DF9CF80912001877FAF
:10067000F5CFCF93DF93282F30E0F901E659FD4FF6
:100680008491F901EC5DFD4FD491F901E252FE4FE6
:10069000C491CC23A1F081110E94D202EC2FF0E092
:1006A000EE0FFF1FEC53FE4FA591B491EC91ED239B
:1006B00081E090E009F480E0DF91CF91089580E03F
:1006C00090E0FACF862F0C9439031F93CF93DF93DA
:1006D000282F30E0F901E659FD4F8491F901EC5DD6
:1006E000FD4FD491F901E252FE4FC491CC23A9F001
:1006F000162F81110E94D202EC2FF0E0EE0FFF1FA7
:10070000E655FE4FA591B4918FB7F894EC91111175
:1007100008C0D095DE23DC938FBFDF91CF911F916E
:100720000895DE2BF8CF862F642F0C946503CF93AA
:10073000DF9390E0FC01EC5DFD4F249182529E4FCF
:10074000FC0184918823C9F090E0880F991FFC0177
:10075000E057FE4FA591B491FC01E655FE4FC591BF
:10076000D49161110DC09FB7F8948C91209582238C
:100770008C938881282328839FBFDF91CF91089590
:10078000623051F49FB7F8943C91822F8095832377
:100790008C93E8812E2BEFCF8FB7F894EC912E2B12
:1007A0002C938FBFEACF862F642F0C9497036F9200
:1007B0007F928F929F92AF92BF92CF92DF92EF92F1
:1007C000FF920F931F93CF93DF9381E08093D10625
:1007D0008FB7F8944091B8055091B9056091BA056A
:1007E0007091BB058FBF8091C1069091C206A09108
:1007F000C306B091C406481B590B6A0B7B0B809152
:10080000CD069091CE06B0E0A0E084179507A6072C
:10081000B70708F01DC1C0E08091CB06C81760F48F
:10082000E091C706F091C806EC0FF11D62E08081EF
:100830000E949703CF5FF0CF712C812C912C540133
:1008400083948091CC06781608F05FC0072D10E0E5
:10085000E091C906F091CA06E00FF11F61E08081C6
:100860000E949703E091C906F091CA06E00FF11FBC
:1008700060E080810E946503D501C401072C04C09B
:10088000880F991FAA1FBB1F0A94D2F76C017C0125
:10089000E094F094612C8091CB066816F8F4C62D94
:1008A000D0E0E091C706F091C806EC0FFD1F8081F3
:1008B0000E9439032496CC0FDD1FCB59D94F892BC9
:1008C00041F4888199818C299D2999838883639437
:1008D000E2CF888199818E219F21F7CFE091C906CF
:1008E000F091CA06E00FF11F61E080810E9465036C
:1008F0008091C9069091CA06080F191F60E0F8019F
:1009000080810E94970373949CCFC5E6D6E0FE01D8
:100910008FEF9FEF278D30A1232B21F4148E968F1C
:10092000858F11A2369626E0E13AF20799F7F12C6D
:1009300096E0D92E8091CB06F81608F050C0E12C35
:100940000F2D10E0000F111F0359194F2091CC06F5
:10095000E21608F042C0F801608171810E2C02C0DD
:10096000769567950A94E2F7F29E900111242E0D78
:10097000311DE5E6F6E080E0458D568D24173507FC
:1009800009F46AC08F5F36968A30B1F760FF23C0E2
:10099000E5E6F6E090E080E0448D411117C0E0917B
:1009A000C506F091C606E20FF31F4081D89EF00104
:1009B000D99EF00D1124EB59F94F448F368F258FB6
:1009C00010A2178E61E00E94AF0105C00196369615
:1009D0008A30910509F7E394B9CFF394ABCF80E067
:1009E00099A19111892F2696F6E0C13ADF07C1F748
:1009F0009FB7F8944091B8055091B9056091BA0538
:100A00007091BB059FBF4093C1065093C20660938F
:100A1000C3067093C4068823D9F080918606882384
:100A2000B9F08091840690918506019789F48091B0
:100A30008106DF91CF911F910F91FF90EF90DF9092
:100A4000CF90BF90AF909F908F907F906F900895C0
:100A50001092D10680E0EDCF6170B5CF0E94D70330
:100A60008823E1F308953FB7F8948091B4059091FD
:100A7000B505A091B605B091B70526B5A89B05C0F0
:100A80002F3F19F00196A11DB11D3FBFBA2FA92F0D
:100A9000982F8827BC01CD01620F711D811D911D0A
:100AA00042E0660F771F881F991F4A95D1F7089576
:100AB0008F929F92AF92BF92CF92DF92EF92FF926E
:100AC0004B015C010E9433056B017C010E943305E0
:100AD0006C197D098E099F09683E73408105910557
:100AE000A8F321E0821A9108A108B10888EEC80E87
:100AF00083E0D81EE11CF11C81149104A104B1040F
:100B000029F7FF90EF90DF90CF90BF90AF909F902C
:100B10008F900895EF92FF920F931F93CF93DF93DF
:100B2000EC01F12CE12C10E000E08091A307909102
:100B3000A407DC01ED91FC910084F185E02D19956D
:100B4000892B99F461E070E080E090E00E94580504
:100B5000BFEFEB1AFB0A88EEE81683E0F80628F3ED
:100B60008FEF3BC002E010E0E0CF8091A3079091AF
:100B7000A407DC01ED91FC910284F385E02D199529
:100B8000982F0930110508F03FC0F8018827E45379
:100B9000FA4F8F4F0C946416D505E305F405F40560
:100BA000F405F405F905FB05FE059F3E09F0BDCFF0
:100BB00018829983C8010196065F1F4F0034110502
:100BC00058F48C01B2CF28813981292B39832883AD
:100BD00021303F4E09F4C6CF8EEFDF91CF911F91A8
:100BE0000F91FF90EF900895FE01E00FF11F9083A9
:100BF000E1CF9E83DFCF1F829887DCCF2F8138859E
:100C0000292B38872F83D6CFFE01E00FF11F808379
:100C10002F813885C80108978217930759F680E01D
:100C2000DCCFAF92BF92CF92DF92EF92FF920F9301
:100C30001F93CF93DF936C017B018B01040F151F72
:100C4000EB015E01AE18BF08C017D10759F06991DA
:100C5000D601ED91FC910190F081E02DC60119952E
:100C6000892B79F7C501DF91CF911F910F91FF90EB
:100C7000EF90DF90CF90BF90AF900895FC01538D1F
:100C8000448D252F30E0842F90E0821B930B541766
:100C900010F0CF96089501970895FC01918D828DF3
:100CA000981761F0A28DAE0FBF2FB11D5D968C918C
:100CB000928D9F5F9F73928F90E008958FEF9FEFCB
:100CC0000895FC01918D828D981731F0828DE80F87
:100CD000F11D858D90E008958FEF9FEF0895FC0141
:100CE000918D228D892F90E0805C9F4F821B91090E
:100CF0008F739927089584ED96E00E946F0621E096
:100D0000892B09F420E0822F08958CEB95E00E9456
:100D10006F0621E0892B09F420E0822F0895FC0161
:100D2000A48DA80FB92FB11DA35ABF4F2C91848D4C
:100D300090E001968F739927848FA689B7892C93A9
:100D4000A089B1898C91837080648C93938D848DFC
:100D5000981306C00288F389E02D80818F7D8083FF
:100D60000895EF92FF920F931F93CF93DF93EC01BF
:100D700081E0888F9B8D8C8D98131AC0E889F98942
:100D8000808185FF15C09FB7F894EE89FF89608345
:100D9000E889F98980818370806480839FBF81E0C6
:100DA00090E0DF91CF911F910F91FF90EF90089508
:100DB000F62E0B8D10E00F5F1F4F0F731127E02EE3
:100DC0008C8D8E110CC00FB607FCFACFE889F9891B
:100DD000808185FFF5CFCE010E948F06F1CFEB8D8C
:100DE000EC0FFD2FF11DE35AFF4FF0829FB7F894EF
:100DF0000B8FEA89FB8980818062CFCFCF93DF930D
:100E0000EC01888D8823B9F0AA89BB89E889F98922
:100E10008C9185FD03C0808186FD0DC00FB607FC57
:100E2000F7CF8C9185FFF2CF808185FFEDCFCE018A
:100E30000E948F06E9CFDF91CF91089580E090E086
:100E4000892B29F00E94850681110E94000080E014
:100E500090E0892B29F00E947B0681110E940000FE
:100E600080E090E0892B49F080E090E0892B29F028
:100E70000E94000081110E94000080E090E0892B18
:100E800049F080E090E0892B29F00E940000811158
:100E90000C94000008951F93CF93DF93C1E0C0939B
:100EA0003605882399F1D091B8001091BA0080914D
:100EB000BC008A7B8093BC0060E084E10E946503F3
:100EC00060E085E10E94650310927B05C0937D057B
:100ED00010927C0561E084E10E94650361E085E198
:100EE0000E9465038091B9008E7F8093B900809144
:100EF000B9008D7F8093B90088E48093B80085E4C1
:100F00008093BC001093BA00D093B800DF91CF91CA
:100F10001F91089520915705260F3327331F213243
:100F20003105ECF420917B05FC0190E080E0243059
:100F300069F082E00895A09157052191AC01495CC8
:100F40005A4FA40FB52FB11D2C930196861798F315
:100F500080915705680F6093570580E0089581E000
:100F6000089508958FEF9FEF08958FEF9FEF0895F5
:100F70008091300590E09195819591090895CF92E7
:100F8000DF92EF92FF920F931F93CF93DF937C0139
:100F9000CB018A0120912F05222389F0EB016B01FF
:100FA000C40ED51ECC15DD0569F06991D701ED9110
:100FB000FC910190F081E02DC7011995F3CF642FCA
:100FC0000E948A07C801DF91CF911F910F91FF9076
:100FD000EF90DF90CF900895CF93DF931F92CDB71E
:100FE000DEB7698320912F052223F9F020912E0589
:100FF000203258F021E030E0FC013383228390E07E
:1010000080E00F90DF91CF91089580912D05E82F1A
:10101000F0E0E35FFA4F998190838F5F80932D0515
:1010200080932E0581E090E0ECCF61E0CE01019647
:101030000E948A07F7CFCF92DF92EF92FF920F9331
:101040001F93CF93DF93FC01C48121E020932F05F0
:10105000C0930C0510922D0510922E058385682BE8
:1010600089E596E00E94EC07D0912E05D13208F078
:1010700092C00E9433056B017C0180917B05811138
:1010800065C082E080937B0581E080937D058FEFD2
:1010900080937A0510929F05D0939E05ADE0B5E050
:1010A000EEE7F5E080E0D81385C01092A0058091AE
:1010B000A005CC0FC82BC093A00580917C05813082
:1010C00009F07CC010927C050E9433056B017C0105
:1010D0008091A0058093BB008091320590913305EB
:1010E000A0913405B0913505892B8A2B8B2B99F073
:1010F0000E9433050091320510913305209134058B
:10110000309135056C197D098E099F09061717075F
:1011100028073907E0F18091BC0083FDD9CF85EC29
:101120008093BC000E9433056B017C0180917B059C
:10113000823009F445C080917A058F3F61F180913A
:101140007A05803241F180917A0525C0809132057F
:1011500090913305A0913405B0913505892B8A2BE8
:101160008B2B09F48ACF0E94330500913205109130
:10117000330520913405309135056C197D098E09B0
:101180009F09061717072807390708F076CF8091BF
:1011900031050E944B0710922D0510922E051092DA
:1011A0002F05DF91CF911F910F91FF90EF90DF906E
:1011B000CF9008959D9191938F5F75CF85EEB0CFBD
:1011C0008091320590913305A0913405B091350599
:1011D000892B8A2B8B2B09F4A9CF0E943305009110
:1011E00032051091330520913405309135056C1985
:1011F0007D098E099F09061717072807390708F088
:1012000095CFC5CF089590E080E00895FB0101904F
:101210000020E9F73197AF01461B570BDC01ED9138
:10122000FC910280F381E02D19948F929F92AF92EE
:10123000BF920F931F93CF93DF93CDB7DEB7A197E4
:101240000FB6F894DEBF0FBECDBF19A2423008F42E
:101250004AE08E010F5D1F4F842E912CB12CA12CE2
:10126000A50194010E944216E62FB901CA01EA3095
:1012700044F5E05DD801EE938D01232B242B252B23
:1012800079F790E080E0109769F0FD01019000206F
:10129000E9F73197AF014A1B5B0BBD0189EA97E083
:1012A0000E941106A1960FB6F894DEBF0FBECDBF07
:1012B000DF91CF911F910F91BF90AF909F908F9032
:1012C0000895E95CD7CFCF93DF93CDB7DEB7C9548C
:1012D000D1090FB6F894DEBF0FBECDBF81E09FEEFF
:1012E0009A83898391E09F8322E030E039872887C1
:1012F0008FEF8B838C838D838E8382E08A879B879D
:10130000CE0101960E941F02CE0101960E948A051D
:1013100081110EC08F81873059F48A85C75BDF4FFA
:101320000FB6F894DEBF0FBECDBFDF91CF91089509
:1013300081E0F4CFCF93DF93CDB7DEB7C954D109A5
:101340000FB6F894DEBF0FBECDBF81E09FEE9A834B
:10135000898391E09F8321E030E0398728878FEFF0
:101360008B838C838D838E839A87CE0101960E9416
:101370001F02CE0101960E948A0581110EC08F8145
:10138000873059F48A85C75BDF4F0FB6F894DEBF0C
:101390000FBECDBFDF91CF91089581E0F4CF0F93C1
:1013A0001F93CF938C01C62F0E941B086C2F646083
:1013B000C8010E941B086C2F6B7FC8010E941B088C
:1013C00083EC90E00197F1F7CF911F910F91089571
:1013D0000F931F93CF93DF938C01D62FC42F607F81
:1013E000642B0E94CF0980E1D89FB00111246C2B9F
:1013F000C801DF91CF911F910F910C94CF0940E06C
:1014000061E089EA97E00E94E8098BE39FE1019798
:10141000F1F70895CF93DF9300D000D01F921F9271
:10142000CDB7DEB798E0EDE1F2E0DE011196019074
:101430000D929A95E1F79091B107691710F06FEF4F
:10144000690F262F30E0220F331F41E050E04C0F90
:101450005D1F240F351FF9016081680F606840E04F
:1014600089EA97E028960FB6F894DEBF0FBECDBF8D
:10147000DF91CF910C94E809EF92FF920F931F93A5
:10148000CF930CEA15E07801C0E00E942E05D70149
:101490008D937D0161E08C2F0E940A0A65E672E05F
:1014A00089EA97E00E940609CF5FC43071F70E9475
:1014B000FF098091B0059091B105E0E0F2E0D8011C
:1014C0003D918D012191321301C00196B5E0003BA1
:1014D0001B07A9F79093B1058093B005CF911F9199
:1014E0000F91FF90EF900895E9EAF7E06681862F6B
:1014F00081608683696040E0CF010C94E80941E097
:101500000E94E80981E090E00895CF92DF92EF9287
:10151000FF9297FF18C06B017C0141E06DE289EA00
:1015200097E00E94E80966277727CB016C197D09AF
:101530008E099F094AE00E9415090196FF90EF90DD
:10154000DF90CF9008954AE0FF90EF90DF90CF902A
:101550000C94150985ED8093BC0080913205909123
:101560003305A0913405B09135050796A11DB11D35
:1015700023E0B695A795979587952A95D1F7209161
:10158000BC0024FD03C010927B05089540913205F4
:10159000509133056091340570913505452B462BEC
:1015A000472B69F30097A105B10541F02AE22A957E
:1015B000F1F700C00197A109B109E1CF8091310590
:1015C0000C944B071F920F920FB60F9211242F937A
:1015D0003F938F939F93AF93BF938091B805909162
:1015E000B905A091BA05B091BB053091B30523E0D0
:1015F000230F2D3758F50196A11DB11D2093B3057A
:101600008093B8059093B905A093BA05B093BB0534
:101610008091B4059091B505A091B605B091B7053C
:101620000196A11DB11D8093B4059093B505A093BB
:10163000B605B093B705BF91AF919F918F913F9140
:101640002F910F900FBE0F901F90189526E8230F33
:101650000296A11DB11DD2CF1F920F920FB60F920D
:1016600011240BB60F922F933F934F935F936F9379
:101670007F938F939F93AF93BF93EF93FF9384EDEB
:1016800096E00E948F06FF91EF91BF91AF919F91DD
:101690008F917F916F915F914F913F912F910F901B
:1016A0000BBE0F900FBE0F901F9018951F920F92B8
:1016B0000FB60F9211240BB60F922F938F939F9317
:1016C000EF93FF93E091E406F091E5068081E091CD
:1016D000EA06F091EB0682FD1DC090818091ED0637
:1016E0008F5F8F732091EE06821741F0E091ED0637
:1016F000F0E0EC52F94F958F8093ED06FF91EF915A
:101700009F918F912F910F900BBE0F900FBE0F9056
:101710001F9018958081F2CF1F920F920FB60F92F3
:1017200011240BB60F922F933F934F935F936F93B8
:101730007F938F939F93AF93BF93EF93FF938CEB24
:1017400095E00E948F06FF91EF91BF91AF919F911D
:101750008F917F916F915F914F913F912F910F905A
:101760000BBE0F900FBE0F901F9018951F920F92F7
:101770000FB60F9211240BB60F922F938F939F9356
:10178000EF93FF93E091CC05F091CD058081E0913E
:10179000D205F091D30582FD1DC090818091D505C1
:1017A0008F5F8F732091D605821741F0E091D505A8
:1017B000F0E0E454FA4F958F8093D505FF91EF91B7
:1017C0009F918F912F910F900BBE0F900FBE0F9096
:1017D0001F9018958081F2CF1F920F920FB60F9233
:1017E00011240BB60F922F933F934F935F936F93F8
:1017F0007F938F939F93AF93BF93EF93FF938091CA
:10180000B900887F803609F44DC008F040C08832A6
:1018100009F4A7C028F5803109F49BC0C8F48823D7
:1018200009F4F7C0883009F494C0FF91EF91BF919B
:10183000AF919F918F917F916F915F914F913F9168
:101840002F910F900BBE0F900FBE0F901F90189509
:10185000883109F486C0803241F780937A0514C03C
:10186000803409F49BC040F48033B9F38833E9F63F
:1018700080937A0585ECAEC0803509F483C0883545
:1018800009F494C0883489F60E94AA0ACECF883918
:1018900009F48AC038F5883729F050F4883611F0F9
:1018A000803719F683E080937B051092790555C047
:1018B000883809F479C0803919F0803809F0B5CF3B
:1018C00080917905803208F06FC0E091790581E060
:1018D0008E0F809379058091BB00F0E0E75AFA4FB4
:1018E00080833BC0803B39F0D0F4803A09F477C064
:1018F000883A09F09ACF84E080937B0510925805CE
:1019000010925705F0E0E0E019958091570581119C
:101910000FC081E0809357051092370509C0803CC5
:1019200009F4A8CF883C09F4A5CF883B09F07DCF06
:10193000E091580581E08E0F80935805F0E0E95C56
:10194000FA4F80818093BB00909158058091570594
:1019500029C08091A0058093BB0085EC8093BC00DA
:1019600064CF90919F0580919E05981758F5E0915E
:101970009F0581E08E0F80939F05F0E0E258FA4FBB
:101980008081E9CFE0919F0581E08E0F80939F05D4
:101990008091BB00F0E0E258FA4F808390919F0560
:1019A00080919E059817C8F285E8D8CFE0919F05F1
:1019B00081E08E0F80939F058091BB00F0E0E2589C
:1019C000FA4F808380917D0581115ECF81E0809305
:1019D0007C0584EA8093BC0010927B0526CF85ECC1
:1019E0008093BC0010927B0580917905803230F4A1
:1019F000E0917905F0E0E75AFA4F1082609179059D
:101A000070E089E595E0F0E0E0E019951092790545
:101A10000CCF10927A0538CF1F920F920FB60F920B
:101A200011240BB60F922F933F938F939F93AF93F5
:101A3000BF93CF93DF93EF93FF93E091A305F091D2
:101A4000A405309749F0A685B7859585868D81FFD9
:101A500014C08C918923A1F4FF91EF91DF91CF9174
:101A6000BF91AF919F918F913F912F910F900BBE9E
:101A70000F900FBE0F901F9018958C91892361F7DE
:101A8000A389B4899C918589809589238C938689C3
:101A900097890197F1F7208D318DC685D78588E02C
:101AA000D9011197F1F798818150D1F78091A20562
:101AB00090E001968F7399272091A105281779F05E
:101AC0009091A2058093A205828D938D0197F1F7E5
:101AD000A389B4898C919589892B8C93BDCF868DF0
:101AE0008160868FF1CF24ED36E01092D7061092F8
:101AF000D60688EE93E0A0E0B0E08093D8069093FD
:101B0000D906A093DA06B093DB064FE252E0509379
:101B1000D5064093D4066DEC70E07093E1066093B7
:101B2000E0066CEC70E07093E3066093E20668EC0C
:101B300070E07093E5066093E40669EC70E07093E2
:101B4000E7066093E6066AEC70E07093E90660933E
:101B5000E8066EEC70E07093EB066093EA06109274
:101B6000ED061092EE061092EF061092F00610921B
:101B7000BF051092BE058093C0059093C105A09348
:101B8000C205B093C3055093BD054093BC0545EC19
:101B900050E05093C9054093C80544EC50E0509381
:101BA000CB054093CA0540EC50E05093CD054093DF
:101BB000CC0541EC50E05093CF054093CE0542EC6C
:101BC00050E05093D1054093D00546EC50E050933F
:101BD000D3054093D2051092D5051092D6051092E8
:101BE000D7051092D80510925C0610925B06809380
:101BF0005D0690935E06A0935F06B093600681E455
:101C000092E090935A06809359061092AC07109276
:101C1000AB078DE592E09093AA078093A90787E22E
:101C20008093AD0784E18093B20784E08093B3078B
:101C30001092B407109278071092770710927A07E3
:101C40001092790740E450E050937C0740937B0763
:101C500010927E0710927D078FEF9FEFDC0180933B
:101C60007F0790938007A0938107B09382075093DA
:101C700084074093830740E051EE509386074093DA
:101C80008507109287071092880710928907109293
:101C90008A0780938B0790938C07A0938D07B0934E
:101CA0008E071092A6071092A5073093A8072093DD
:101CB000A7073093A4072093A307109267061092FA
:101CC0006B0610926A0610926C0683E592E0909380
:101CD000660680936506E1E8F6E0108214821382BE
:101CE0001582369686E0ED3BF807B9F789E092E079
:101CF0009093C8068093C70685E092E09093CA0649
:101D00008093C90684E08093CB068093CC068DE057
:101D100092E09093C6068093C5068AE090E0909387
:101D2000CE068093CD0684EF91E09093D006809309
:101D3000CF061092D3061092D2061092C1061092CE
:101D4000C2061092C3061092C4061092D1060895DE
:101D5000CF93DF93CDB7DEB7CF54D1090FB6F89448
:101D6000DEBF0FBECDBF789484B5826084BD84B5DC
:101D7000816084BD85B5826085BD85B5816085BD86
:101D800080916E00816080936E001092810080913E
:101D900081008260809381008091810081608093C6
:101DA0008100809180008160809380008091B100EB
:101DB00084608093B1008091B00081608093B00016
:101DC0008091910082608093910080919100816068
:101DD0008093910080919000816080939000809129
:101DE000A10082608093A1008091A1008160809316
:101DF000A1008091A00081608093A00080912101CA
:101E00008260809321018091210181608093210172
:101E10008091200181608093200180917A0084600C
:101E200080937A0080917A00826080937A0080911A
:101E30007A00816080937A0080917A008068809334
:101E40007A001092C100E091CC05F091CD0502E03E
:101E50000083E091C805F091C9051082E091CA05A0
:101E6000F091CB058FEC80831092D405E091D005E2
:101E7000F091D10516E01083E091CE05F091CF05E9
:101E8000808180618083E091CE05F091CF058081D3
:101E900088608083E091CE05F091CF0580818068D5
:101EA0008083E091CE05F091CF0580818F7D808386
:101EB00061E085E30E94970368EE73E080E090E0C4
:101EC0000E945805E091A707F091A807309731F1DB
:101ED000A089B1890C93A089B1891C92A485B5858C
:101EE0001C92A685B78580E18C93108EA489B58954
:101EF0001C93A289B3898C9180618C93A289B38948
:101F00008C9188608C93A289B3898C9180688C9322
:101F10000288F389E02D80818F7D8083E091A50781
:101F2000F091A607309709F499C0138E128E118E86
:101F3000108E178A168A82E490E0958F848F8485AC
:101F400096EF980F943048F02EEC280F243028F0AC
:101F500022EC280F283008F055C02FE030E0378BF6
:101F6000268B20E430E0318F208F27E230E0338F62
:101F7000228F943050F02EEC280F243030F022ECD9
:101F8000280FB0E0A0E0283010F4A8E6B0E02C91D3
:101F9000943028F032EC380F383008F462C131E068
:101FA000232B943048F09EEC980F943028F08E53F9
:101FB000B0E0A0E0883010F4A8E6B0E02C932485CF
:101FC00036EF320F343008F44EC18EEC820F84307D
:101FD00008F449C182EC820F883008F047C18DE6D1
:101FE00090E0948B838B343008F043C12650330B40
:101FF00081E001C0880F2A95EAF7858B848D958D45
:102000000197F1F7828D938D892B41F14091A305C2
:102010005091A405E417F50709F14115510569F040
:10202000DA0153962D913C91D9019C91DA01559694
:102030008C9180958923D9018C93868D8E7F868F94
:102040001092A2051092A105F093A405E093A305B8
:10205000A389B4898C919589892B8C9388E080938E
:10206000B40760E089EA97E00E941B088091AE0700
:1020700088608093AE0744E0F42EF092B10762E3EB
:1020800070E080E090E00E9458056091B40789EA12
:1020900097E00E941B0868EE73E080E090E00E94E9
:1020A000580560E389EA97E00E94CF090BE416E443
:1020B000C8010197F1F760E389EA97E00E94CF0930
:1020C000C8010197F1F760E389EA97E00E94CF0920
:1020D00083E592E00197F1F760E289EA97E00E94D8
:1020E000CF096091AE07606240E089EA97E00E9404
:1020F000E809F092AF0740E06CE089EA97E00E94BF
:10210000E8090E94FF0982E08093B00740E066E0A2
:1021100089EA97E00E94E80940E062E089EA97E0F6
:102120000E94E8098BE39FE10197F1F767E672E00F
:1021300089EA97E00E9406090E94740A60ED77E040
:1021400080E090E00E94580561E080E00E940A0A69
:1021500068E772E089EA97E00E94060960ED77E09F
:1021600080E090E00E94580562E080E00E940A0A48
:1021700065E872E089EA97E00E94060961E085E37C
:102180000E94650360ED77E080E090E00E945805D2
:102190000E94FF09AA24A3945FEEB52E1FEF8824A6
:1021A0008394912C70EB472E75E0572E0E949A096C
:1021B0008111EDC00E9463098111E9C086E0E5E26A
:1021C000F2E0DE01A65BBF4F01900D928A95E1F728
:1021D000BA82A982B1E0BF83E6E0F0E0F987E88740
:1021E0001B831C831D831E8386E0FE01E65BFF4F7D
:1021F000DE011A9601900D928A95E1F7CE010196C3
:102200000E941F02CE0101960E948A05811118C00A
:102210008F818730A9F48B859C85982789279827FB
:1022200090937207809371078D859E8598278927E3
:10223000982790937407809373078A85882371F198
:102240000E94FF0961E972E089EA97E00E940609AD
:1022500060ED77E080E090E00E9458050E94FF0961
:1022600090C034E09DCE8BE690E0BBCE90E080E065
:10227000B8CE88E0223309F4C0CE84E0233309F4D9
:10228000BCCE82E0243309F4B8CE82EC820F8830D1
:1022900018F42E53330BACCE81E0AFCE0E94FF0971
:1022A00060E080E00E940A0A6BEA72E089EA97E047
:1022B0000E94060961E080E00E940A0A62E273E07F
:1022C00089EA97E00E94060961E084E00E940A0A18
:1022D000609171077091720790E080E04AE00E947F
:1022E000150968E873E180E090E00E9458051092BB
:1022F000B1051092B0050E94FF0960E080E00E94E5
:102300000A0A6FEB72E089EA97E00E9406090E94D0
:102310003C0A8091B0059091B10560E0049709F006
:10232000EBC285E30E9465030E94FF0960E080E044
:102330000E940A0A6EEC72E089EA97E00E940609A0
:1023400061E080E00E940A0A66ED72E089EA97E0A7
:102350000E94060961E086E00E940A0A6091710706
:102360007091720790E080E04AE00E94150968E8E9
:1023700073E180E090E00E94580561E085E30E94EF
:1023800065036EE972E089EA97E00E9406090E94FF
:10239000D703082F8093B205682F8CEB95E00E943D
:1023A000B106013409F0DAC01092B1051092B005FF
:1023B0000E94FF0960E080E00E940A0A60EF72E07C
:1023C00089EA97E00E94060960EA7FE080E090E0F9
:1023D0000E9458050E94FF0960E080E00E940A0AFE
:1023E0006FEB72E089EA97E00E9406090E943C0ABE
:1023F0008091B0059091B105049709F0EEC3109259
:10240000B2050E94FF0964EF72E089EA97E00E943A
:1024100006096CED75E080E090E00E9458050E948E
:10242000FF0960E080E00E940A0A64E073E089EA44
:1024300097E00E94060904E63AE0332E0E942E053A
:10244000682E880F7708F0E36F1A710861E080E06A
:102450000E940A0AB301770C880B990B0E94850A27
:102460000E942E05E82E880FFF0820E3E21AF108EB
:1024700061E081E00E940A0AB701FF0C880B990B0A
:102480000E94850A0E942E05C82E880FDD0830E3C1
:10249000C31AD10861E082E00E940A0AB601DD0C8D
:1024A000880B990B0E94850A68EE73E080E090E04B
:1024B0000E945805E39CE02C1124069DE00C112499
:1024C000CE0C09F4BBCFC092A50526E0E22E0E94F7
:1024D000FF0969E173E089EA97E00E94060960E07C
:1024E0008DE00E940A0A6091A50570E090E080E00E
:1024F0004AE00E94150961E080E00E940A0A6EE944
:1025000072E089EA97E00E9406090E949A09811107
:10251000FCCF0E946309082F0E94FF09063009F4CE
:10252000F8C208F0FBC1002309F400C2013009F42D
:10253000F7C266E773E089EA97E00E9406096CED4E
:1025400075E080E090E00E94580560ED77E080E063
:1025500090E00E9458050E94FF09202E8091B2054C
:10256000823409F060C00E94FF0960E080E00E94B0
:102570000A0A62EF73E089EA97E00E9406090E9466
:10258000740A61E080E00E940A0A63E074E089EA6C
:1025900097E00E9406096CEA7DE080E090E00E94EE
:1025A000580562E080E00E940A0A65E174E089EA69
:1025B00097E00E94060960E085E30E9465030E949F
:1025C000740A62E370E080E090E00E9458050E9487
:1025D000FF0960E080E00E940A0A60E174E089EA95
:1025E00097E00E9406090E94740A68E873E180E09F
:1025F00090E00E94580561E085E30E9465030E9417
:10260000FF0960E080E00E940A0A0E94740A6EE1FD
:1026100074E089EA97E00E94060960ED77E080E0C7
:1026200090E00E9458058091B205843409F04FC0B3
:102630000E94FF096AE274E089EA97E00E940609B5
:102640006CED75E080E090E00E9458050E94FF0963
:1026500060E080E00E940A0A6FEB72E089EA97E08E
:102660000E9406090E943C0A8091B0059091B10534
:10267000049709F0C5C2BA82A982F1E0FF83998666
:1026800088861B831C831D831E838DE08A87CE0171
:1026900001960E941F02CE0101960E948A056CEDF0
:1026A00075E080E090E00E9458050E94FF0960E01C
:1026B00080E00E940A0A6BE374E089EA97E00E94D6
:1026C00006096CED75E080E090E00E94580580916D
:1026D000B205833409F0B8C06BE474E08CEB95E08C
:1026E0000E9406090E94FF0960E080E00E940A0A39
:1026F00062E574E089EA97E00E9406096CED75E0F6
:1027000080E090E00E9458050E94FF0960E080E0B0
:102710000E940A0A62E674E089EA97E00E940609CC
:102720000E943C0A8091B0059091B105049709F090
:1027300089C20E94FF0960E080E00E940A0A65E702
:1027400074E089EA97E00E94060962E080E00E9456
:102750000A0A9CEAE92E95E0F92E6701712C0E9485
:102760002E05D6018D936D0161E0872D0E940A0A26
:1027700065E672E089EA97E00E9406097394B4E086
:102780007B12EDCF0E94FF0960E080E00E940A0A00
:1027900068E874E089EA97E00E94060961E080E059
:1027A0000E940A0A88EA682E85E0782E6301312C9F
:1027B0000E942E05F60181936F0161E0832D0E9436
:1027C0000A0A65E672E089EA97E00E9406093394F6
:1027D000F4E03F12EDCF8091A6059091A705D701B7
:1027E0003D917D01F30121913F01321301C001961A
:1027F0004E145F04A1F79093A7058093A605049754
:1028000009F013C20E94FF0960E080E00E940A0AFA
:1028100069E974E089EA97E00E9406098091A805B9
:10282000809300028091A905809301028091AA05FE
:10283000809302028091AB05809303026CED75E0FA
:1028400080E090E00E9458058091B205833209F043
:1028500002C20E94FF0960E080E00E940A0A6FEB5A
:1028600074E089EA97E00E94060960ED77E080E075
:1028700090E00E9458050E94FF0960E080E00E94FD
:102880000A0A68EC74E089EA97E00E94060964EF9E
:1028900071E080E090E00E94580561E080E00E94D5
:1028A0000A0A66ED74E089EA97E00E94060964EF7F
:1028B00071E080E090E00E94580562E080E00E94B4
:1028C0000A0A6BED74E089EA97E00E94060964EF5A
:1028D00071E080E090E00E94580563E080E00E9493
:1028E0000A0A67EE74E089EA97E00E94060960ED43
:1028F00077E080E090E094C180E00E940A0A6DEDEC
:1029000072E089EA97E00E94060960ED77E080E0D6
:1029100090E00E9458050E94FF09A0CC073019F0F2
:10292000053109F006CE67E673E005CE66E273E096
:1029300089EA97E00E9406096CED75E080E090E07E
:102940000E9458050E94FF0960E080E00E940A0A88
:1029500066E373E089EA97E00E9406090E949A09FB
:102960008230E1F70E94FF0960E080E00E940A0ADD
:1029700063E873E089EA97E00E9406096CED75E070
:1029800080E090E00E9458050E949A098111FCCFD6
:102990000E94FF090E946309082F863009F4B5C020
:1029A00080F48823B9F0813009F4B6C060E080E09B
:1029B0000E940A0A66E773E089EA97E00E94060926
:1029C000C4CD873011F0853189F760E080E00E9446
:1029D0000A0AA9CF60E080E00E940A0A65E973E074
:1029E00089EA97E00E9406096CED75E080E090E0CE
:1029F0000E9458050E94FF0960E080E00E940A0AD8
:102A0000BA82A98281E08F83998688861B831C8382
:102A10001D831E8395E09A87CE0101960E941F02B6
:102A2000CE0101960E948A05811104C08F810A851A
:102A3000873009F001E0802F90E0009709F073C023
:102A400060E080E00E940A0A61EA73E089EA97E0A8
:102A50000E9406096CED75E080E090E00E94580548
:102A60008091A505BA82A982A1E0AF83E4E0F0E0FD
:102A7000F987E8871B831C831D831E83EA86AB8747
:102A80001C868D87CE0101960E941F02CE01019601
:102A90000E948A05811104C08F810A85873009F060
:102AA00001E0802F90E0009709F066C00E94FF09C6
:102AB00060E080E00E940A0A64EC73E089EA97E033
:102AC0000E94060961E080E00E940A0A64ED73E05A
:102AD00089EA97E00E94060961E085E00E940A0AFF
:102AE0006091A50570E090E080E04AE00E94150941
:102AF00068EB7BE080E090E00E9458050E94FF09AF
:102B0000022D011122CD212CE2CC60E080E00E9458
:102B10000A0A64E473E00FCD60E080E00E940A0AD4
:102B200063E573E008CD8130910591F460E080E0C9
:102B30000E940A0A63E573E089EA97E00E940609A9
:102B40006CED75E080E090E00E94580501E0FDCC5E
:102B50000A97B9F660E080E00E940A0A61EB73E030
:102B600089EA97E00E9406096CED75E080E090E04C
:102B70000E9458050AE0E9CC81309105D9F28B30EA
:102B8000910571F469ED73E089EA97E00E94060906
:102B90006CED75E080E090E00E9458050BE0D5CC2C
:102BA000489771F466EE73E089EA97E00E9406099F
:102BB0006CED75E080E090E00E94580508E1C5CC1E
:102BC00066E773E089EA97E00E9406096CED75E01C
:102BD00080E090E00E94580594CF60E080E00E9481
:102BE0000A0A6DED72E089EA97E00E94060960ED3D
:102BF00077E080E090E00E9458050E94FF09AECC8B
:102C00000E94FF0960E080E00E940A0A6DED72E018
:102C100089EA97E00E94060964EC79E080E090E0A0
:102C20000E9458050E941E07C1CA0E94FF0960E069
:102C300080E00E940A0A6BEA74E089EA97E00E9449
:102C40000609FCCD0E94FF0960E080E00E940A0AAC
:102C50006DED72E0F2CF0E94FF0960E080E00E941B
:102C60000A0A6FEE74E089EA97E00E94060961E0C3
:102C700080E00E940A0A61E075E089EA97E00E941C
:102C80000609D0CFA1E21A2EAA1BBB1BFD010DC065
:102C9000AA1FBB1FEE1FFF1FA217B307E407F5070C
:102CA00020F0A21BB30BE40BF50B661F771F881FE8
:102CB000991F1A9469F760957095809590959B017E
:102CC000AC01BD01CF010895EE0FFF1F881F8BBF20
:102CD0000790F691E02D1994F894FFCF31323334F8
:102CE0000005040302090807063132334134353642
:102CF00042373839432A302344000040001400543E
:102D0000001B01000000A300000000B10611063EF8
:102D100006FE066F064D06610600000000EC07BFC8
:102D2000070309B107B807B507B20700000000D3D1
:102D30000393036203000000007F0A1106030902E7
:102D4000092A00534D41525420444F4F52204C4FBA
:102D5000434B2100494E495449414C495A494E4739
:102D600000494E495449414C495A45440041434366
:102D700045532044454E49454400504C414345206D
:102D800046494E4745520046494E474552505249E2
:102D90004E54204D41544348454400454E544552FD
:102DA0002050415353574F52440057454C434F4DC9
:102DB000450055534552203A00494E434F52524523
:102DC00043542050415353574F5244004E455720CF
:102DD0005553455220454E524F4C4C4D454E540094
:102DE000454E54455220554E495155452055534561
:102DF0005220494400454E524F4C4C4544204944D2
:102E00003A00494D41474520434F4E56455254459F
:102E1000440052454D4F56452046494E47455200C5
:102E2000494D41474520544F204D45535359004388
:102E30004F4D4D554E49434154494F4E20455252F6
:102E40004F5200494E56414C49442046494E474551
:102E50005200554E4B4F574E204552524F52005044
:102E60004C4143452053414D452046494E4745522C
:102E700000494D4147452054414B454E0050524971
:102E80004E5453204D415443484544210046494E39
:102E900047455253204D49534D4154434845440002
:102EA0005052494E542053544F52454420415400EF
:102EB00049443A20004D454D4F5259204C45414B15
:102EC0002100464C415348204552524F520053591D
:102ED0005354454D204259504153534544210055C8
:102EE0004E4C4F434B494E472E2E2E00444F4F52CF
:102EF00020554E4C4F434B454400444F4F52204CBD
:102F00004F434B45440044454C45544520444154AF
:102F100041424153453F00444154414241534520C1
:102F2000454D505459210043616C6C656400434821
:102F3000414E47452050415353574F524400454E50
:102F40005445522043555252454E542050415353FC
:102F500000454E544552204E455720504153534F43
:102F600057524400434F4E4649524D20504153530F
:102F7000574F52440050415353574F5244205550DD
:102F80004441544544210050415353574F5244202B
:102F90004D4953534D415443482100435245444900
:102FA00054533A00524F484954204959454E4741DD
:102FB0005200414B494C00535552414A2050415414
:102FC000494C0056494E4159414B00504C414345F4
:102FD0002046494E474552204E4F57210057414900
:082FE00054494E472E2E2E002D
:020000040003F7
:10E000000D9489F10D94B2F10D94B2F10D94B2F129
:10E010000D94B2F10D94B2F10D94B2F10D94B2F1F0
:10E020000D94B2F10D94B2F10D94B2F10D94B2F1E0
:10E030000D94B2F10D94B2F10D94B2F10D94B2F1D0
:10E040000D94B2F10D94B2F10D94B2F10D94B2F1C0
:10E050000D94B2F10D94B2F10D94B2F10D94B2F1B0
:10E060000D94B2F10D94B2F10D94B2F10D94B2F1A0
:10E070000D94B2F10D94B2F10D94B2F10D94B2F190
:10E080000D94B2F10D94B2F10D94B2F10D94B2F180
:10E090000D94B2F10D94B2F10D94B2F10D94B2F170
:10E0A0000D94B2F10D94B2F10D94B2F10D94B2F160
:10E0B0000D94B2F10D94B2F10D94B2F10D94B2F150
:10E0C0000D94B2F10D94B2F10D94B2F10D94B2F140
:10E0D0000D94B2F10D94B2F10D94B2F10D94B2F130
:10E0E0000D94B2F141546D656761323536300041AF
:10E0F000726475696E6F206578706C6F72657220DE
:10E1000073746B3530305632206279204D4C530099
:10E11000426F6F746C6F616465723E004875683F52
:10E1200000436F6D70696C6564206F6E203D200048
:10E130004350552054797065202020203D20005FF9
:10E140005F4156525F415243485F5F3D2000415658
:10E1500052204C696243205665723D20004743437C
:10E160002056657273696F6E203D20004350552024
:10E1700049442020202020203D20004C6F7720663D
:10E18000757365202020203D20004869676820665F
:10E190007573652020203D200045787420667573D6
:10E1A00065202020203D20004C6F636B2066757336
:10E1B000652020203D20004D617220203720323024
:10E1C000313300312E362E3800342E332E350056A2
:10E1D00023202020414444522020206F7020636F70
:10E1E00064652020202020696E73747275637469E1
:10E1F0006F6E2061646472202020496E74657272B3
:10E20000757074006E6F20766563746F7200726A49
:10E210006D702020006A6D70200057686174207056
:10E220006F72743A00506F7274206E6F7420737541
:10E2300070706F72746564004D7573742062652030
:10E2400061206C6574746572002000577269747483
:10E25000696E672045450052656164696E672045B7
:10E26000450045452065727220636E743D00504F35
:10E27000525400303D5A65726F2061646472003FF1
:10E280003D43505520737461747300403D454550C3
:10E29000524F4D207465737400423D426C696E6B41
:10E2A000204C454400453D44756D70204545505215
:10E2B0004F4D00463D44756D7020464C415348001B
:10E2C000483D48656C70004C3D4C69737420492F83
:10E2D0004F20506F72747300513D51756974005234
:10E2E0003D44756D702052414D00563D73686F7707
:10E2F00020696E7465727275707420566563746FF0
:10E30000727300593D506F727420626C696E6B00BD
:10E310002A0011241FBECFEFD1E2DEBFCDBF01E046
:10E320000CBF12E0A0E0B2E0EEE1FDEF03E00BBFB6
:10E3300002C007900D92A030B107D9F712E0A0E01B
:10E34000B2E001C01D92AE30B107E1F70F9460F367
:10E350000D948DFE01E20EBF0FEF0DBF11241FBE05
:10E360000D9460F30D9400F020E030E040ED57E0B4
:10E3700005C0FA013197F1F72F5F3F4F2817390792
:10E38000C0F308959C01260F311DC901A0E0B0E043
:10E390002F5F3F4FABBFFC018791882361F08093D3
:10E3A000C6008091C00086FFFCCF8091C0008064D1
:10E3B0008093C000EACF08958DE08093C6008091DD
:10E3C000C00086FFFCCF8091C00080648093C000B5
:10E3D0008AE08093C6008091C00086FFFCCF8091C8
:10E3E000C00080648093C00008950F94C2F10F9420
:10E3F000DCF10895FC019081992359F09093C600B7
:10E400008091C00086FFFCCF8091C0008064809323
:10E41000C0003196992379F70895282F982F929567
:10E420009F70892F805D8A3308F0895F8093C600D2
:10E430008091C00086FFFCCF8091C00080648093F3
:10E44000C000822F8F70982F905D9A3308F0995FEB
:10E450009093C6008091C00086FFFCCF8091C000E1
:10E4600080648093C00008959C01FB01853691056E
:10E470001CF46330710594F0C90164E670E00F94F8
:10E480002EFE605D7F4F6093C6008091C00086FFC6
:10E49000FCCF8091C00080648093C0002B30310598
:10E4A00014F43297B4F0C90164E670E00F942EFEC4
:10E4B0006AE070E00F942EFE605D7F4F6093C600AF
:10E4C0008091C00086FFFCCF8091C0008064809363
:10E4D000C000C9016AE070E00F942EFEC0968093E0
:10E4E000C6008091C00086FFFCCF8091C000806490
:10E4F0008093C00008951F93182F8EE692EE60E07F
:10E500000F94C2F11093C6008091C00086FFFCCF2B
:10E510008091C00080648093C0000F94DCF11F9153
:10E5200008952F923F924F925F926F927F928F92B7
:10E530009F92AF92BF92CF92DF92EF92FF920F9392
:10E540001F93DF93CF93CDB7DEB762970FB6F894E2
:10E55000DEBF0FBECDBF382E622ECA01DB015C01CB
:10E560006D01772420E2222E2E010894411C511CBB
:10E570008BC081E0A81680E0B80681E0C80680E084
:10E58000D80628F0C601AA27BB270F940DF2BB2797
:10E59000AD2D9C2D8B2D0F940DF28A2D0F940DF225
:10E5A0002092C6008091C00086FFFCCF8091C00001
:10E5B00080648093C0009DE29093C6008091C0006B
:10E5C00086FFFCCF8091C00080648093C0002092C1
:10E5D000C6008091C00086FFFCCF8091C00080649F
:10E5E0008093C00019828601750188249924A1E0D6
:10E5F0003A1651F03A1620F0B2E03B1661F409C029
:10E600000BBFF701779007C0C7010F9477FE782EF4
:10E6100002C0F7017080872D0F940DF22092C60082
:10E620008091C00086FFFCCF8091C0008064809301
:10E63000C000872D8052F401EF70F0708F3520F408
:10E64000E40DF51D708204C0E40DF51D8EE280839B
:10E650000894E11CF11C011D111D0894811C911CE2
:10E6600090E18916910409F0C2CF80E190E0A0E02A
:10E67000B0E0A80EB91ECA1EDB1E198AC2010F9493
:10E68000FAF10F94DCF16A94662009F072CF629679
:10E690000FB6F894DEBF0FBECDBFCF91DF911F91B3
:10E6A0000F91FF90EF90DF90CF90BF90AF909F9031
:10E6B0008F907F906F905F904F903F902F90089534
:10E6C0002F923F924F925F926F927F928F929F9282
:10E6D000AF92BF92CF92DF92EF92FF920F931F9370
:10E6E000DF93CF93CDB7DEB7CD53D1400FB6F894BB
:10E6F000DEBF0FBECDBF01E20EBF0FEF0DBF94B75F
:10E70000F894A89514BE80916000886180936000A1
:10E7100010926000789493FF05C0E0910002F091A0
:10E7200001021995279A2F9A8091C00082608093E8
:10E73000C00080E18093C40088E18093C1000000A4
:10E74000EE24FF24870144E0A42EB12CCC24DD2448
:10E7500024C0C5010197F1F70894E11CF11C011DCB
:10E76000111D21E2E2162EE4F20620E0020720E06D
:10E77000120718F031E0C32ED12CC801B70127ECE5
:10E780003BE140E050E00F9441FE611571058105C9
:10E79000910519F485B1805885B98091C00087FD35
:10E7A00003C0C114D104A9F2A6014F5F5F4FC25E3E
:10E7B000DE4F59834883CE51D140C25EDE4F8881FF
:10E7C0009981CE51D140019711F00D9410FEC05D9A
:10E7D000DE4F19821882C053D14060E0C15DDE4F28
:10E7E0001882CF52D14088249924C35DDE4F19820C
:10E7F0001882CD52D140C05EDE4F188219821A8233
:10E800001B82C052D140CE5CDE4F188219821A8220
:10E810001B82C253D140EE24FF2487010BBFF701B6
:10E8200007911691C45CDE4F19830883CC53D14005
:10E830000D940BFEC25EDE4F28813981CE51D1404E
:10E840002130310509F52091C600C25EDE4F1982E4
:10E850001882CE51D14022C02F5F3F4F4F4F5F4FA4
:10E86000213082E138078AE7480780E0580780F0C6
:10E87000C45CDE4FE881F981CC53D140EF5FFF4F9C
:10E8800019F0EE27FF27099420E030E040E050E047
:10E890008091C00087FFE0CF2091C600C35DDE4FAE
:10E8A00048815981CD52D1404F5F5F4FC35DDE4FEC
:10E8B00059834883CD52D140213209F063C64A3092
:10E8C000510508F05FC60894811C911C53E0851621
:10E8D000910409F059C600E010E018C081E280936D
:10E8E000C6008091C00086FFFCCF8091C00080648C
:10E8F0008093C0002F5F3F4F2931310579F70F9486
:10E90000DCF10F5F1F4F0530110519F020E030E0FA
:10E91000E5CF10920A0210920B0210920C02109294
:10E920000D02109206021092070210920802109235
:10E930000902109202021092030210920402109235
:10E9400005028FEE90EE60E00F94F5F180E191EE1C
:10E9500060E00F94C2F18091C00087FFFCCF9091DE
:10E96000C600903608F09F759032B8F09093C600BC
:10E970008091C00086FFFCCF8091C00080648093AE
:10E98000C000A0E2A093C6008091C00086FFFCCF2B
:10E990008091C00080648093C000983409F4D7C18E
:10E9A0009934B8F4923409F459C1933458F490333B
:10E9B00019F1903308F4E3C59F33A1F1903409F0C5
:10E9C000DEC5BDC0953409F470C1963409F0D7C5D1
:10E9D00098C1923509F42BC2933538F49C3409F46C
:10E9E000F5C1913509F0CBC518C2963509F445C279
:10E9F000993509F0C4C567C483E792EE62E00F94CD
:10EA0000F5F110920602109207021092080210927D
:10EA1000090210920A0210920B0210920C0210923C
:10EA20000D0213C18FE792EE62E00F94F5F18FEEC5
:10EA300090EE60E00F94F5F181E291EE60E00F94CA
:10EA4000C2F187EB91EE60E00F94F5F180E391EE77
:10EA500060E00F94C2F184EE90EE60E00F94F5F167
:10EA60008FE391EE60E00F94C2F186E090E061E008
:10EA700070E00F9434F20F94DCF18DE591EE60E0DC
:10EA80000F94C2F189EC91EE60E00F94F5F18EE401
:10EA900091EE60E00F94C2F183EC91EE60E00F9490
:10EAA000F5F18CE691EE60E00F94C2F18EE10F94E7
:10EAB0000DF288E90F940DF281E00F940DF20F949E
:10EAC000DCF18BE791EE60E00F94C2F119E0E0E039
:10EAD000F0E010935700E4918E2F0F940DF20F94F5
:10EAE000DCF18AE891EE60E00F94C2F1E3E0F0E03F
:10EAF00010935700E4918E2F0F940DF20F94DCF1D8
:10EB000089E991EE60E00F94C2F1E2E0F0E0109349
:10EB10005700E4918E2F0F940DF20F94DCF188EAE8
:10EB200091EE60E00F94C2F1E1E0F0E01093570045
:10EB30001491812F0F940DF20F94DCF107CF8BE825
:10EB400092EE62E00F94F5F18BE492EE60E00F94A8
:10EB5000F5F10F94DCF100E010E019C0C8016F2D51
:10EB60000F947FFEFF2031F489E492EE60E00F9471
:10EB7000C2F10BC0F092C6008091C00086FFFCCFAE
:10EB80008091C00080648093C0000F5F1F4FC80158
:10EB900081519F41A0E0B0E0ABBFFC01F790BAE229
:10EBA000FB1621F0E2E000301E07C1F60F94DCF105
:10EBB0000F94DCF187E592EE60E00F94F5F10F948D
:10EBC000DCF1CC24DD2400E010E01EC0C8010F946D
:10EBD00077FEF82E882331F489E492EE60E00F94FA
:10EBE000C2F10BC08093C6008091C00086FFFCCFAD
:10EBF0008091C00080648093C000FE1419F00894D6
:10EC0000C11CD11C0F5F1F4FC80181519F41A0E063
:10EC1000B0E0ABBFFC01E790FAE2EF1621F022E092
:10EC20000030120799F60F94DCF10F94DCF182E6C4
:10EC300092EE60E00F94C2F1C60161E070E00F94C3
:10EC400034F20F94DCF10F94DCF110920202109276
:10EC50000302109204021092050278CE89E992EE26
:10EC600062E00F94F5F1279A2F9A16C02F9880E052
:10EC700090E0E0EDF7E03197F1F7019684369105E9
:10EC8000C1F72F9A80E090E0E0EDF7E03197F1F7DF
:10EC9000019684369105C1F78091C00087FFE6CFC9
:10ECA0008091C00087FFFCCF64C485EA92EE62E0E9
:10ECB0000F94F5F140910202509103026091040219
:10ECC0007091050281E020E10F9491F2809102029F
:10ECD00090910302A0910402B091050280509F4FD1
:10ECE000AF4FBF4F8093020290930302A0930402A0
:10ECF000B093050280509041A040B04008F426CE69
:10ED0000A4CF83EB92EE62E00F94F5F140910602FE
:10ED100050910702609108027091090280E020E1A1
:10ED20000F9491F28091060290910702A09108023F
:10ED3000B091090280509F4FAF4FBF4F80930602A2
:10ED400090930702A0930802B0930902FFCD80ECD4
:10ED500092EE62E00F94F5F183E792EE60E00F949B
:10ED6000F5F18FE792EE60E00F94F5F18BE892EE0B
:10ED700060E00F94F5F189E992EE60E00F94F5F10F
:10ED800085EA92EE60E00F94F5F183EB92EE60E09D
:10ED90000F94F5F180EC92EE60E00F94F5F187ECC2
:10EDA00092EE60E00F94F5F188ED92EE60E00F9442
:10EDB000F5F18FED92EE60E00F94F5F18AEE92EEB0
:10EDC00060E00F94F5F183E093EEBDCD87EC92EE19
:10EDD00062E00F94F5F181E40F947BF282E40F94EA
:10EDE0007BF283E40F947BF284E40F947BF285E45E
:10EDF0000F947BF286E40F947BF287E40F947BF20E
:10EE000088E40F947BF28AE40F947BF28BE40F94F6
:10EE10007BF28CE40F947BF299CD88ED92EE62E068
:10EE20000F94F5F1772473948824992409C48FED05
:10EE300092EE62E00F94F5F140910A0250910B02BC
:10EE400060910C0270910D0282E020E10F9491F22A
:10EE500080910A0290910B02A0910C02B0910D02D8
:10EE600080509F4FAF4FBF4F80930A0290930B0289
:10EE7000A0930C02B0930D0269CD8AEE92EE62E08F
:10EE80000F94F5F184EE90EE60E00F94F5F18FECC5
:10EE900091EE60E00F94F5F1662477244301CC5D98
:10EEA000DE4F19821882C452D140D401C301B695F5
:10EEB000A79597958795CA5DDE4F88839983AA8326
:10EEC000BB83C652D140CC5DDE4FA881B981C4520C
:10EED000D1401196CC5DDE4FB983A883C452D14096
:10EEE000CD0162E070E00F9434F2B0E2B093C6005E
:10EEF0008091C00086FFFCCF8091C0008064809329
:10EF0000C000EDE2E093C6008091C00086FFFCCF18
:10EF10008091C00080648093C000F0E2F093C6004E
:10EF20008091C00086FFFCCF8091C00080648093F8
:10EF3000C000CA5DDE4FE880F9800A811B81C6529D
:10EF4000D140BB27A12F902F8F2D0F940DF2CA5DBA
:10EF5000DE4F8881C652D1400F940DF2B0E2FB2EF5
:10EF6000F092C6008091C00086FFFCCF8091C00067
:10EF700080648093C0000DE30093C6008091C000C0
:10EF800086FFFCCF8091C00080648093C00010E2B7
:10EF90001093C6008091C00086FFFCCF8091C00016
:10EFA00080648093C0008BBEF3012791C65DDE4F65
:10EFB0002883CA52D140A22EBB24CC24DD2408943D
:10EFC000611C711C811C911C8BBEF3018791282E42
:10EFD0003324442455240894611C711C811C911C09
:10EFE0008BBEF3013791C55DDE4F3883CB52D140E4
:10EFF0000894611C711C811C911C8BBEF30147910C
:10F00000C45DDE4F4883CC52D140ADEFEA2EAFEF66
:10F01000FA2EAFEF0A2FAFEF1A2F6E0C7F1C801E57
:10F02000911E142D032DF22CEE24EA0CFB1C0C1D5A
:10F030001D1D0F940DF220E22093C6008091C000A8
:10F0400086FFFCCF8091C00080648093C000C65DC5
:10F05000DE4F8881CA52D1400F940DF230E23093D6
:10F06000C6008091C00086FFFCCF8091C000806404
:10F070008093C000C45DDE4F8881CC52D1400F9494
:10F080000DF240E24093C6008091C00086FFFCCFA5
:10F090008091C00080648093C000C55DDE4F888190
:10F0A000CB52D1400F940DF250E25093C6008091A4
:10F0B000C00086FFFCCF8091C00080648093C000B8
:10F0C0008FEFE8168FEFF80680E0080780E018075A
:10F0D00031F484E092EE60E00F94C2F1DFC0D80119
:10F0E000C7018070907CA070B0708050904CA040A0
:10F0F000B040D1F52FEF3FE340E050E0E222F322B1
:10F1000004231523CA5DDE4FA880B980CA80DB8046
:10F11000C652D140AE0CBF1CC01ED11EAA0CBB1CD7
:10F12000CC1CDD1C8EE092EE60E00F94C2F1BB2798
:10F13000A12F902F8F2D0F940DF28E2D0F940DF285
:10F1400030E23093C6008091C00086FFFCCF8091F2
:10F15000C00080648093C0004EE34093C60080915D
:10F16000C00086FFFCCF87C08EE09EEFA0E0B0E03D
:10F17000E822F9220A231B239CE0E91694E9F90608
:10F1800090E0090790E0190709F088C0C45DDE4FE0
:10F19000A881CC52D140EA2EFF2400E010E0102FCD
:10F1A0000F2DFE2CEE24C55DDE4FB881CB52D14031
:10F1B000EB0EF11C011D111DD601C501817090706F
:10F1C000A070B070DC0199278827E80EF91E0A1F8D
:10F1D0001B1F20EF30E040E050E0A222B322C42207
:10F1E000D52241E1AA0CBB1CCC1CDD1C4A95D1F7F1
:10F1F000EA0CFB1C0C1D1D1D81E090E0A0E0B0E0BE
:10F20000282239224A225B2235E1220C331C441C7D
:10F21000551C3A95D1F7E20CF31C041D151D57013E
:10F220006801AA0CBB1CCC1CDD1C85E192EE60E0E1
:10F230000F94C2F1C801AA27BB270F940DF2BB2778
:10F24000A12F902F8F2D0F940DF28E2D0F940DF274
:10F2500090E29093C6008091C00086FFFCCF809121
:10F26000C00080648093C000AEE3A093C60080918C
:10F27000C00086FFFCCF8091C00080648093C000F6
:10F28000C601AA27BB270F940DF2BB27AD2D9C2DDD
:10F290008B2D0F940DF28A2D0F940DF20F94DCF14B
:10F2A000CC5DDE4FE881F981C452D140F99709F471
:10F2B0004DCBF4E0EF2EF12C012D112D6E0C7F1CA7
:10F2C000801E911EF2CD83E093EE62E00F94F5F183
:10F2D0008AE192EE60E00F94C2F18091C00087FF56
:10F2E000FCCF1091C6001F751093C6008091C0001E
:10F2F00086FFFCCF8091C00080648093C0000F9493
:10F30000DCF1812F81548A3108F036C1163409F4BA
:10F3100095C0173490F4133409F44EC0143430F40B
:10F320001134F1F0123409F01DC130C0143409F465
:10F3300059C0153409F016C16BC01A3409F4C4C0A1
:10F340001B3438F4173409F48FC0183409F00AC19B
:10F35000A1C01B3409F4D2C01C3409F003C1E8C0B9
:10F360008FEF81B90DC082B1809582B980E090E0C5
:10F37000E0EDF7E03197F1F70196883C9105C1F790
:10F380008091C00087FFEFCF12B8EFC08FEF84B934
:10F390000DC085B1809585B980E090E0E0EDF7E0A3
:10F3A0003197F1F70196883C9105C1F78091C00033
:10F3B00087FFEFCF15B8D9C08FEF87B90DC088B1DF
:10F3C000809588B980E090E0E0EDF7E03197F1F7C3
:10F3D0000196883C9105C1F78091C00087FFEFCF6F
:10F3E00018B8C3C08FEF8AB90DC08BB180958BB9A7
:10F3F00080E090E0E0EDF7E03197F1F70196883C8E
:10F400009105C1F78091C00087FFEFCF1BB8ADC059
:10F410008FEF8DB90DC08EB180958EB980E090E0F0
:10F42000E0EDF7E03197F1F70196883C9105C1F7DF
:10F430008091C00087FFEFCF1EB897C08FEF80BBD1
:10F440000DC081B3809581BB80E090E0E0EDF7E0F6
:10F450003197F1F70196883C9105C1F78091C00082
:10F4600087FFEFCF11BA81C08FEF83BB0DC084B38C
:10F47000809584BB80E090E0E0EDF7E03197F1F714
:10F480000196883C9105C1F78091C00087FFEFCFBE
:10F4900014BA6BC08FEF809301010FC080910201FD
:10F4A00080958093020180E090E0E0EDF7E03197F5
:10F4B000F1F70196883C9105C1F78091C00087FF64
:10F4C000EDCF1092020151C08FEF809304010FC065
:10F4D0008091050180958093050180E090E0E0ED4A
:10F4E000F7E03197F1F70196883C9105C1F78091DB
:10F4F000C00087FFEDCF1092050137C08FEF8093DA
:10F5000007010FC08091080180958093080180E079
:10F5100090E0E0EDF7E03197F1F70196883C910536
:10F52000C1F78091C00087FFEDCF109208011DC088
:10F530008FEF80930A010FC080910B01809580931B
:10F540000B0180E090E0E0EDF7E03197F1F70196F4
:10F55000883C9105C1F78091C00087FFEDCF1092E4
:10F560000B0103C085E292EEEEC98091C00087FFD7
:10F57000FCCF8091C600EAC988E392EEE4C98CE131
:10F5800091EEE1C988249924933011F1943028F444
:10F59000913089F09230B8F408C0953061F195301F
:10F5A000F0F0963009F048C043C02B3109F042C951
:10F5B00091E06BE13FC96227C15DDE4F2883CF52E6
:10F5C000D14092E037C9B22FA0E0622793E032C960
:10F5D000822F90E0A82BB92B622794E02BC92E3004
:10F5E00009F039C3622795E0C05DDE4F19821882A9
:10F5F000C053D1401FC9E1E0F0E0EC0FFD1FC05D3A
:10F60000DE4F08811981C053D140E00FF11F2083E4
:10F610000F5F1F4FC05DDE4F19830883C053D14079
:10F6200062270A171B0709F005C9D80196E002C92D
:10F63000261709F010C303C0973009F0FBC87724E0
:10F640009981933109F412C19431C8F4963009F4C8
:10F65000D8C0973050F4923009F406C1933009F4C1
:10F660006DC0913009F059C253C0913109F477C08F
:10F67000923108F0BBC0903109F04FC2F5C098310B
:10F6800009F487C0993150F4953109F4EFC09531F0
:10F6900008F4C6C1963109F040C2C2C19A3109F4DA
:10F6A0006CC09A3108F491C09B3109F45BC09D3164
:10F6B00009F033C29D81903359F48F81882311F46E
:10F6C0009EE11CC0813011F091E018C098E916C08D
:10F6D000892F807591F0903539F4E0E0F0E089E011
:10F6E0008093570094910AC0983539F4E3E0F0E034
:10F6F00089E080935700949101C090E01A821B82A8
:10F700008D818C831D829E831F8227E030E009C299
:10F710001A8288E08B8381E48C8386E58D8382E581
:10F720008E8389E48F8383E5888780E589878FE5E9
:10F730008A8782E38B872BE030E0F3C18A818139AD
:10F7400041F0823941F0803911F48FE005C080E04A
:10F7500003C082E001C08AE01A828B8344C0772410
:10F76000739482C08D81882311F48EE12CC0813086
:10F7700011F081E028C088E926C01A82E1E0F0E0BB
:10F7800089E08093570084918B831C8224E030E0D1
:10F79000C8C18B81803589F48C81883039F4E2E0EE
:10F7A000F0E089E08093570084910DC0E0E0F0E044
:10F7B00089E080935700849106C0E3E0F0E089E09F
:10F7C0008093570084911A82DFCF8D81836C99E0FA
:10F7D000E1E0F0E0082E90935700E89507B600FCB2
:10F7E000FDCF1A821B8223E030E09BC180EC8A832C
:10F7F000CE5CDE4F188219821A821B82C253D1401E
:10F800008EC18A8190E0A0E0B0E0582F44273327D2
:10F8100022278B8190E0A0E0B0E0DC0199278827C7
:10F82000282B392B4A2B5B2B8D8190E0A0E0B0E098
:10F83000282B392B4A2B5B2B8C8190E0A0E0B0E089
:10F84000BA2FA92F982F8827282B392B4A2B5B2BCF
:10F85000220F331F441F551FC05EDE4F288339839C
:10F860004A835B83C052D1401A8259C13A81C95C34
:10F87000DE4F3883C753D140CA5CDE4F1882C6536F
:10F88000D1408B81C82EDD24CA5CDE4F488159816E
:10F89000C653D140C42AD52A933109F082C0CE5C28
:10F8A000DE4F88819981AA81BB81C253D1408050AB
:10F8B000904CA340B04030F583E0CE5CDE4FE88052
:10F8C000F9800A811B81C253D140F70100935B008C
:10F8D00080935700E89507B600FCFDCFCE5CDE4F65
:10F8E000088119812A813B81C253D14000501F4FAA
:10F8F0002F4F3F4FCE5CDE4F088319832A833B8313
:10F90000C253D140C05EDE4F488159816A817B81FC
:10F91000C052D140DE011B9631E08C9111962C91A2
:10F9200011971296C75CDE4F2883C953D140C85C3B
:10F93000DE4F1882C853D14090E0C85CDE4FE881AA
:10F94000F981C853D1408E2B9F2B0C01FA01609393
:10F950005B0030935700E89511244E5F5F4F6F4F67
:10F960007F4F0EEFE02E0FEFF02ECE0CDF1CC114F8
:10F97000D10499F685E0C05EDE4F088119812A81A5
:10F980003B81C052D140F80120935B008093570027
:10F99000E89507B600FCFDCF81E180935700E8951C
:10F9A00035C0C05EDE4F88819981AA81BB81C0527B
:10F9B000D140B695A795979587957C018601ABE0D8
:10F9C000AA2EB12CAC0EBD1E0BC0D5016D915D01F0
:10F9D000C7010F947FFE0894E11CF11C01501040F8
:10F9E0000115110591F7A60160E070E0440F551F65
:10F9F000661F771FC05EDE4FE880F9800A811B8199
:10FA0000C052D1404E0D5F1D601F711F1A82C05E33
:10FA1000DE4F488359836A837B83C052D1407FC0C5
:10FA2000FA80C55CDE4FF882CB53D140C65CDE4F16
:10FA30001882CA53D1408B81C82EDD24C65CDE4FAC
:10FA400008811981CA53D140C02AD12A1A828981DA
:10FA5000BE016D5F7F4F843121F59601C05EDE4FA0
:10FA6000E880F9800A811B81C052D1400BBFF701A9
:10FA700087919691DB018C9311969C936E5F7F4FDB
:10FA8000D801C7010296A11DB11DC05EDE4F88835B
:10FA90009983AA83BB83C052D14022503040F1F6F3
:10FAA00036C0C05EDE4F288139814A815B81C052F9
:10FAB000D1400894C108D108760100E010E0089414
:10FAC000C11CD11C0894E11CF11C011D111DE20E8A
:10FAD000F31E041F151F21BDBB27A52F942F832FB5
:10FAE00082BD2F5F3F4F4F4F5F4FF89A80B5DB01CC
:10FAF0008D93BD012E153F054007510761F7C05E8C
:10FB0000DE4F288339834A835B83C052D1409601FC
:10FB10002D5F3F4FFB01108204C080EC8A8322E0FE
:10FB200030E08BE18093C6008091C00086FFFCCF5F
:10FB30008091C00080648093C000C15DDE4FF88179
:10FB4000CF52D140F093C6008091C00086FFFCCF19
:10FB50008091C00080648093C000432F3093C60022
:10FB60008091C00086FFFCCF8091C00080648093AC
:10FB7000C000922F2093C6008091C00086FFFCCF6A
:10FB80008091C00080648093C0008EE08093C600A6
:10FB90008091C00086FFFCCF8091C000806480937C
:10FBA000C00065E1C15DDE4FE880CF52D1406E25D7
:10FBB00069276427FE01319610C090819093C6009A
:10FBC0008091C00086FFFCCF31968091C000806498
:10FBD0008093C0006927215030402115310569F715
:10FBE0006093C6008091C00086FFFCCF8091C0006A
:10FBF00080648093C00085B1805885B9772081F4F6
:10FC0000C15DDE4F0881CF52D1400F5FC15DDE4F35
:10FC10000883CF52D14090E0A0E0B0E00D941AF4F8
:10FC200027982F9880E090E020ED37E0F901319798
:10FC3000F1F7019684369105C9F700008091C00064
:10FC40008D7F8093C00081E180935700E895EE2777
:10FC5000FF270994FFCF90E00D941AF497FB092E2B
:10FC600007260AD077FD04D02ED006D000201AF443
:10FC7000709561957F4F0895F6F7909581959F4F08
:10FC80000895A1E21A2EAA1BBB1BFD010DC0AA1FDD
:10FC9000BB1FEE1FFF1FA217B307E407F50720F0F5
:10FCA000A21BB30BE40BF50B661F771F881F991F70
:10FCB0001A9469F760957095809590959B01AC01B9
:10FCC000BD01CF010895AA1BBB1B51E107C0AA1FAC
:10FCD000BB1FA617B70710F0A61BB70B881F991FED
:10FCE0005A95A9F780959095BC01CD010895F99991
:10FCF000FECF92BD81BDF89A992780B50895262F31
:10FD0000F999FECF1FBA92BD81BD20BD0FB6F89400
:0EFD1000FA9AF99A0FBE01960895F894FFCF63
:00000001FF
