:100000000C9459010C948A010C948A010C948A0175
:100010000C948A010C948A010C948A010C948A0134
:100020000C948A010C940C0D0C940C0D0C940C0D7A
:100030000C948A010C948A010C948A010C948A0114
:100040000C948A010C948A010C948A010C948A0104
:100050000C948A010C948A010C948A010C94E20A93
:100060000C948A010C94B60B0C948C0B0C948A01A2
:100070000C948A010C948A010C948A010C948A01D4
:100080000C948A010C948A010C948A010C948A01C4
:100090000C94560B0C942C0B0C948A010C94EC0BC6
:1000A0000C948A010C948A010C948A010C948A01A4
:1000B0000C948A010C948A010C948A010C948A0194
:1000C0000C948A010C948A010C948A010C948A0184
:1000D0000C948A010C948A010C948A010C948A0174
:1000E0000C948A010C94FE050C94F0020C9402030B
:1000F0000C94B1070C94B1060C9431030C941106C6
:100100000C9461060C9403090C9435030C947F0A3B
:100110000C94D5050C94B8070C94FE060C94FE02C2
:100120000C940F030C942B030C9427030C94B50729
:100130000C94B2070C9462030C9415030C94BF0743
:100140000C94F9050C943E060C94730D0C94020962
:100150000C94F6020C94EC070C9430030C9493036B
:100160000C94FA020C94E3050C9423030C94FB0505
:100170000C9419030C9405030C940B030C94F405D4
:100180000C944D060C946F060C941D030C94D30331
:1001900000002100240027002A002D003000330039
:1001A00001010000040107010A01000022002500EE
:1001B00028002B002E003100340002010000050150
:1001C00008010B01000020002300260029002C005C
:1001D0002F0032000001000003010601090105059E
:1001E0000505070508080808020202020A0A0808AD
:1001F00004040404010101010101010103030303DB
:1002000003030303040707070C0C0C0C0C0C0C0C69
:100210000202020206060606060606060B0B0B0B7A
:100220000B0B0B0B0102102020080810204010209F
:1002300040800201020108040201010204081020AA
:1002400040808040201008040201800402018040A8
:100250002010080402010804020101020408102011
:100260004080010204081020408000000A0B0209AF
:100270000C0D0E0807030401000000000000000040
:10028000000000000000000000000000000000006E
:10029000000000000000121110000000000000002B
:1002A000000000000000000000000000000000004E
:1002B000730D11241FBECFEFD1E2DEBFCDBF00E032
:1002C0000CBF15E0A0E0B2E0ECEDFCE200E00BBFFB
:1002D00002C007900D92AC30B107D9F727E0ACE02F
:1002E000B5E001C01D92A53BB207E1F711E0C9E5F9
:1002F000D1E000E006C021970109802FFE010E9495
:100300006416C835D10780E00807A9F70E94A80E37
:100310000C946C160C94000096E0899FD001112477
:10032000AB59B94F90967C936E935F9791E09196FD
:100330009C939197E091D206F091D3069091D106CB
:10034000992339F0309751F0811108C080918106CE
:100350001994309719F05C968C91FACF0895CF924A
:10036000DF92EF92FF920F931F9396E0899FF00127
:100370001124EB59F94F11A2278D30A121303105FD
:1003800051F178F02230310509F451C023303105A4
:1003900009F452C01F910F91FF90EF90DF90CF9022
:1003A00008956623B9F361E070E00E948C012FB7D5
:1003B000F8948091B8059091B905A091BA05B091D3
:1003C000BB052FBF8093BD069093BE06A093BF06CA
:1003D000B093C006DFCF9FB7F894C090B805D09017
:1003E000B905E090BA05F090BB059FBF0091BD062E
:1003F0001091BE062091BF063091C006C01AD10AE6
:10040000E20AF30A0091CF061091D00630E020E016
:100410000C151D052E053F0550F462E070E01F919C
:100420000F91FF90EF90DF90CF900C948C016111B1
:10043000B1CF63E070E0F3CF70E060E0F0CFDF9227
:10044000EF92FF920F931F93CF93DF93EC01809174
:10045000A3079091A4076981DC01ED91FC910190C3
:10046000F081E02D19958091A3079091A407DC01FC
:10047000ED91FC910190F081E02D688119958091BA
:10048000A3079091A407DC01ED91FC910190F0810C
:10049000E02D6A8119958091A3079091A407DC0152
:1004A000ED91FC910190F081E02D6B811995809187
:1004B000A3079091A407DC01ED91FC910190F081DC
:1004C000E02D6C8119958091A3079091A407DC0120
:1004D000ED91FC910190F081E02D6D811995809155
:1004E000A3079091A407DC01ED91FC910190F081AC
:1004F000E02D6E8119950F8118850E5F1F4F809139
:10050000A3079091A407E12EFF24DC01ED91FC915B
:100510000190F081E02D6E2D19958091A3079091A7
:10052000A407DC01ED91FC910190F081E02D602F9A
:1005300019950E0D1F2D111D8E81080F111DD12C27
:100540008091A3079091A407DC01ED91FC910190AB
:10055000F081E02DED2CF12C2F813885E216F30689
:1005600060F4EC0EFD1ED70119966C911995F701F8
:100570008185080F111DD394E3CF612F19958091C8
:10058000A3079091A407DC01ED91FC910190F0810B
:10059000E02D602FDF91CF911F910F91FF90EF9091
:1005A000DF9019948150823108F05AC0E82FF0E0B2
:1005B0008827E252FD4F8F4F0C946416FE0202030F
:1005C000F002F602FA02300305030B030F031503D2
:1005D00019031D032303270330032B0331033503C2
:1005E000809180008F7780938000089580918000B3
:1005F0008F7DF9CF80918000877FF5CF84B58F778D
:1006000084BD089584B58F7DFBCF8091B0008F7736
:100610008093B00008958091B0008F7DF9CF8091D4
:1006200090008F77809390000895809190008F7D47
:10063000F9CF80919000877FF5CF8091A0008F77D0
:100640008093A00008958091A0008F7DF9CF8091C4
:10065000A000877FF5CF809120018F7780932001C4
:100660000895809120018F7DF9CF80912001877FAF
:10067000F5CFCF93DF93282F30E0F901E659FD4FF6
:100680008491F901EC5DFD4FD491F901E252FE4FE6
:10069000C491CC23A1F081110E94D202EC2FF0E092
:1006A000EE0FFF1FEC53FE4FA591B491EC91ED239B
:1006B00081E090E009F480E0DF91CF91089580E03F
:1006C00090E0FACF862F0C9439031F93CF93DF93DA
:1006D000282F30E0F901E659FD4F8491F901EC5DD6
:1006E000FD4FD491F901E252FE4FC491CC23A9F001
:1006F000162F81110E94D202EC2FF0E0EE0FFF1FA7
:10070000E655FE4FA591B4918FB7F894EC91111175
:1007100008C0D095DE23DC938FBFDF91CF911F916E
:100720000895DE2BF8CF862F642F0C946503CF93AA
:10073000DF9390E0FC01EC5DFD4F249182529E4FCF
:10074000FC0184918823C9F090E0880F991FFC0177
:10075000E057FE4FA591B491FC01E655FE4FC591BF
:10076000D49161110DC09FB7F8948C91209582238C
:100770008C938881282328839FBFDF91CF91089590
:10078000623051F49FB7F8943C91822F8095832377
:100790008C93E8812E2BEFCF8FB7F894EC912E2B12
:1007A0002C938FBFEACF862F642F0C9497036F9200
:1007B0007F928F929F92AF92BF92CF92DF92EF92F1
:1007C000FF920F931F93CF93DF9381E08093D10625
:1007D0008FB7F8944091B8055091B9056091BA056A
:1007E0007091BB058FBF8091C1069091C206A09108
:1007F000C306B091C406481B590B6A0B7B0B809152
:10080000CD069091CE06B0E0A0E084179507A6072C
:10081000B70708F01DC1C0E08091CB06C81760F48F
:10082000E091C706F091C806EC0FF11D62E08081EF
:100830000E949703CF5FF0CF712C812C912C540133
:1008400083948091CC06781608F05FC0072D10E0E5
:10085000E091C906F091CA06E00FF11F61E08081C6
:100860000E949703E091C906F091CA06E00FF11FBC
:1008700060E080810E946503D501C401072C04C09B
:10088000880F991FAA1FBB1F0A94D2F76C017C0125
:10089000E094F094612C8091CB066816F8F4C62D94
:1008A000D0E0E091C706F091C806EC0FFD1F8081F3
:1008B0000E9439032496CC0FDD1FCB59D94F892BC9
:1008C00041F4888199818C299D2999838883639437
:1008D000E2CF888199818E219F21F7CFE091C906CF
:1008E000F091CA06E00FF11F61E080810E9465036C
:1008F0008091C9069091CA06080F191F60E0F8019F
:1009000080810E94970373949CCFC5E6D6E0FE01D8
:100910008FEF9FEF278D30A1232B21F4148E968F1C
:10092000858F11A2369626E0E13AF20799F7F12C6D
:1009300096E0D92E8091CB06F81608F050C0E12C35
:100940000F2D10E0000F111F0359194F2091CC06F5
:10095000E21608F042C0F801608171810E2C02C0DD
:10096000769567950A94E2F7F29E900111242E0D78
:10097000311DE5E6F6E080E0458D568D24173507FC
:1009800009F46AC08F5F36968A30B1F760FF23C0E2
:10099000E5E6F6E090E080E0448D411117C0E0917B
:1009A000C506F091C606E20FF31F4081D89EF00104
:1009B000D99EF00D1124EB59F94F448F368F258FB6
:1009C00010A2178E61E00E94AF0105C00196369615
:1009D0008A30910509F7E394B9CFF394ABCF80E067
:1009E00099A19111892F2696F6E0C13ADF07C1F748
:1009F0009FB7F8944091B8055091B9056091BA0538
:100A00007091BB059FBF4093C1065093C20660938F
:100A1000C3067093C4068823D9F080918606882384
:100A2000B9F08091840690918506019789F48091B0
:100A30008106DF91CF911F910F91FF90EF90DF9092
:100A4000CF90BF90AF909F908F907F906F900895C0
:100A50001092D10680E0EDCF6170B5CF0E94D70330
:100A60008823E1F308953FB7F8948091B4059091FD
:100A7000B505A091B605B091B70526B5A89B05C0F0
:100A80002F3F19F00196A11DB11D3FBFBA2FA92F0D
:100A9000982F8827BC01CD01620F711D811D911D0A
:100AA00042E0660F771F881F991F4A95D1F7089576
:100AB0008F929F92AF92BF92CF92DF92EF92FF926E
:100AC0004B015C010E9433056B017C010E943305E0
:100AD0006C197D098E099F09683E73408105910557
:100AE000A8F321E0821A9108A108B10888EEC80E87
:100AF00083E0D81EE11CF11C81149104A104B1040F
:100B000029F7FF90EF90DF90CF90BF90AF909F902C
:100B10008F900895EF92FF920F931F93CF93DF93DF
:100B2000EC01F12CE12C10E000E08091A307909102
:100B3000A407DC01ED91FC910084F185E02D19956D
:100B4000892B99F461E070E080E090E00E94580504
:100B5000BFEFEB1AFB0A88EEE81683E0F80628F3ED
:100B60008FEF3BC002E010E0E0CF8091A3079091AF
:100B7000A407DC01ED91FC910284F385E02D199529
:100B8000982F0930110508F03FC0F8018827E45379
:100B9000FA4F8F4F0C946416D505E305F405F40560
:100BA000F405F405F905FB05FE059F3E09F0BDCFF0
:100BB00018829983C8010196065F1F4F0034110502
:100BC00058F48C01B2CF28813981292B39832883AD
:100BD00021303F4E09F4C6CF8EEFDF91CF911F91A8
:100BE0000F91FF90EF900895FE01E00FF11F9083A9
:100BF000E1CF9E83DFCF1F829887DCCF2F8138859E
:100C0000292B38872F83D6CFFE01E00FF11F808379
:100C10002F813885C80108978217930759F680E01D
:100C2000DCCFAF92BF92CF92DF92EF92FF920F9301
:100C30001F93CF93DF936C017B018B01040F151F72
:100C4000EB015E01AE18BF08C017D10759F06991DA
:100C5000D601ED91FC910190F081E02DC60119952E
:100C6000892B79F7C501DF91CF911F910F91FF90EB
:100C7000EF90DF90CF90BF90AF900895FC01538D1F
:100C8000448D252F30E0842F90E0821B930B541766
:100C900010F0CF96089501970895FC01918D828DF3
:100CA000981761F0A28DAE0FBF2FB11D5D968C918C
:100CB000928D9F5F9F73928F90E008958FEF9FEFCB
:100CC0000895FC01918D828D981731F0828DE80F87
:100CD000F11D858D90E008958FEF9FEF0895FC0141
:100CE000918D228D892F90E0805C9F4F821B91090E
:100CF0008F739927089584ED96E00E946F0621E096
:100D0000892B09F420E0822F08958CEB95E00E9456
:100D10006F0621E0892B09F420E0822F0895FC0161
:100D2000A48DA80FB92FB11DA35ABF4F2C91848D4C
:100D300090E001968F739927848FA689B7892C93A9
:100D4000A089B1898C91837080648C93938D848DFC
:100D5000981306C00288F389E02D80818F7D8083FF
:100D60000895EF92FF920F931F93CF93DF93EC01BF
:100D700081E0888F9B8D8C8D98131AC0E889F98942
:100D8000808185FF15C09FB7F894EE89FF89608345
:100D9000E889F98980818370806480839FBF81E0C6
:100DA00090E0DF91CF911F910F91FF90EF90089508
:100DB000F62E0B8D10E00F5F1F4F0F731127E02EE3
:100DC0008C8D8E110CC00FB607FCFACFE889F9891B
:100DD000808185FFF5CFCE010E948F06F1CFEB8D8C
:100DE000EC0FFD2FF11DE35AFF4FF0829FB7F894EF
:100DF0000B8FEA89FB8980818062CFCFCF93DF930D
:100E0000EC01888D8823B9F0AA89BB89E889F98922
:100E10008C9185FD03C0808186FD0DC00FB607FC57
:100E2000F7CF8C9185FFF2CF808185FFEDCFCE018A
:100E30000E948F06E9CFDF91CF91089580E090E086
:100E4000892B29F00E94850681110E94000080E014
:100E500090E0892B29F00E947B0681110E940000FE
:100E600080E090E0892B49F080E090E0892B29F028
:100E70000E94000081110E94000080E090E0892B18
:100E800049F080E090E0892B29F00E940000811158
:100E90000C94000008951F93CF93DF93C1E0C0939B
:100EA0003605882399F1D091B8001091BA0080914D
:100EB000BC008A7B8093BC0060E084E10E946503F3
:100EC00060E085E10E94650310927B05C0937D057B
:100ED00010927C0561E084E10E94650361E085E198
:100EE0000E9465038091B9008E7F8093B900809144
:100EF000B9008D7F8093B90088E48093B80085E4C1
:100F00008093BC001093BA00D093B800DF91CF91CA
:100F10001F91089520915705260F3327331F213243
:100F20003105ECF420917B05FC0190E080E0243059
:100F300069F082E00895A09157052191AC01495CC8
:100F40005A4FA40FB52FB11D2C930196861798F315
:100F500080915705680F6093570580E0089581E000
:100F6000089508958FEF9FEF08958FEF9FEF0895F5
:100F70008091300590E09195819591090895CF92E7
:100F8000DF92EF92FF920F931F93CF93DF937C0139
:100F9000CB018A0120912F05222389F0EB016B01FF
:100FA000C40ED51ECC15DD0569F06991D701ED9110
:100FB000FC910190F081E02DC7011995F3CF642FCA
:100FC0000E948A07C801DF91CF911F910F91FF9076
:100FD000EF90DF90CF900895CF93DF931F92CDB71E
:100FE000DEB7698320912F052223F9F020912E0589
:100FF000203258F021E030E0FC013383228390E07E
:1010000080E00F90DF91CF91089580912D05E82F1A
:10101000F0E0E35FFA4F998190838F5F80932D0515
:1010200080932E0581E090E0ECCF61E0CE01019647
:101030000E948A07F7CFCF92DF92EF92FF920F9331
:101040001F93CF93DF93FC01C48121E020932F05F0
:10105000C0930C0510922D0510922E058385682BE8
:1010600089E596E00E94EC07D0912E05D13208F078
:1010700092C00E9433056B017C0180917B05811138
:1010800065C082E080937B0581E080937D058FEFD2
:1010900080937A0510929F05D0939E05ADE0B5E050
:1010A000EEE7F5E080E0D81385C01092A0058091AE
:1010B000A005CC0FC82BC093A00580917C05813082
:1010C00009F07CC010927C050E9433056B017C0105
:1010D0008091A0058093BB008091320590913305EB
:1010E000A0913405B0913505892B8A2B8B2B99F073
:1010F0000E9433050091320510913305209134058B
:10110000309135056C197D098E099F09061717075F
:1011100028073907E0F18091BC0083FDD9CF85EC29
:101120008093BC000E9433056B017C0180917B059C
:10113000823009F445C080917A058F3F61F180913A
:101140007A05803241F180917A0525C0809132057F
:1011500090913305A0913405B0913505892B8A2BE8
:101160008B2B09F48ACF0E94330500913205109130
:10117000330520913405309135056C197D098E09B0
:101180009F09061717072807390708F076CF8091BF
:1011900031050E944B0710922D0510922E051092DA
:1011A0002F05DF91CF911F910F91FF90EF90DF906E
:1011B000CF9008959D9191938F5F75CF85EEB0CFBD
:1011C0008091320590913305A0913405B091350599
:1011D000892B8A2B8B2B09F4A9CF0E943305009110
:1011E00032051091330520913405309135056C1985
:1011F0007D098E099F09061717072807390708F088
:1012000095CFC5CF089590E080E00895FB0101904F
:101210000020E9F73197AF01461B570BDC01ED9138
:10122000FC910280F381E02D19948F929F92AF92EE
:10123000BF920F931F93CF93DF93CDB7DEB7A197E4
:101240000FB6F894DEBF0FBECDBF19A2423008F42E
:101250004AE08E010F5D1F4F842E912CB12CA12CE2
:10126000A50194010E944216E62FB901CA01EA3095
:1012700044F5E05DD801EE938D01232B242B252B23
:1012800079F790E080E0109769F0FD01019000206F
:10129000E9F73197AF014A1B5B0BBD0189EA97E083
:1012A0000E941106A1960FB6F894DEBF0FBECDBF07
:1012B000DF91CF911F910F91BF90AF909F908F9032
:1012C0000895E95CD7CFCF93DF93CDB7DEB7C9548C
:1012D000D1090FB6F894DEBF0FBECDBF81E09FEEFF
:1012E0009A83898391E09F8322E030E039872887C1
:1012F0008FEF8B838C838D838E8382E08A879B879D
:10130000CE0101960E941F02CE0101960E948A051D
:1013100081110EC08F81873059F48A85C75BDF4FFA
:101320000FB6F894DEBF0FBECDBFDF91CF91089509
:1013300081E0F4CFCF93DF93CDB7DEB7C954D109A5
:101340000FB6F894DEBF0FBECDBF81E09FEE9A834B
:10135000898391E09F8321E030E0398728878FEFF0
:101360008B838C838D838E839A87CE0101960E9416
:101370001F02CE0101960E948A0581110EC08F8145
:10138000873059F48A85C75BDF4F0FB6F894DEBF0C
:101390000FBECDBFDF91CF91089581E0F4CF0F93C1
:1013A0001F93CF938C01C62F0E941B086C2F646083
:1013B000C8010E941B086C2F6B7FC8010E941B088C
:1013C00083EC90E00197F1F7CF911F910F91089571
:1013D0000F931F93CF93DF938C01D62FC42F607F81
:1013E000642B0E94CF0980E1D89FB00111246C2B9F
:1013F000C801DF91CF911F910F910C94CF0940E06C
:1014000061E089EA97E00E94E8098BE39FE1019798
:10141000F1F70895CF93DF9300D000D01F921F9271
:10142000CDB7DEB798E0EDE1F2E0DE011196019074
:101430000D929A95E1F79091B107691710F06FEF4F
:10144000690F262F30E0220F331F41E050E04C0F90
:101450005D1F240F351FF9016081680F606840E04F
:1014600089EA97E028960FB6F894DEBF0FBECDBF8D
:10147000DF91CF910C94E809EF92FF920F931F93A5
:10148000CF930CEA15E07801C0E00E942E05D70149
:101490008D937D0161E08C2F0E940A0A65E672E05F
:1014A00089EA97E00E940609CF5FC43071F70E9475
:1014B000FF098091B0059091B105E0E0F2E0D8011C
:1014C0003D918D012191321301C00196B5E0003BA1
:1014D0001B07A9F79093B1058093B005CF911F9199
:1014E0000F91FF90EF900895E9EAF7E06681862F6B
:1014F00081608683696040E0CF010C94E80941E097
:101500000E94E80981E090E00895CF92DF92EF9287
:10151000FF9297FF18C06B017C0141E06DE289EA00
:1015200097E00E94E80966277727CB016C197D09AF
:101530008E099F094AE00E9415090196FF90EF90DD
:10154000DF90CF9008954AE0FF90EF90DF90CF902A
:101550000C94150985ED8093BC0080913205909123
:101560003305A0913405B09135050796A11DB11D35
:1015700023E0B695A795979587952A95D1F7209161
:10158000BC0024FD03C010927B05089540913205F4
:10159000509133056091340570913505452B462BEC
:1015A000472B69F30097A105B10541F02AE22A957E
:1015B000F1F700C00197A109B109E1CF8091310590
:1015C0000C944B071F920F920FB60F9211242F937A
:1015D0003F938F939F93AF93BF938091B805909162
:1015E000B905A091BA05B091BB053091B30523E0D0
:1015F000230F2D3758F50196A11DB11D2093B3057A
:101600008093B8059093B905A093BA05B093BB0534
:101610008091B4059091B505A091B605B091B7053C
:101620000196A11DB11D8093B4059093B505A093BB
:10163000B605B093B705BF91AF919F918F913F9140
:101640002F910F900FBE0F901F90189526E8230F33
:101650000296A11DB11DD2CF1F920F920FB60F920D
:1016600011240BB60F922F933F934F935F936F9379
:101670007F938F939F93AF93BF93EF93FF9384EDEB
:1016800096E00E948F06FF91EF91BF91AF919F91DD
:101690008F917F916F915F914F913F912F910F901B
:1016A0000BBE0F900FBE0F901F9018951F920F92B8
:1016B0000FB60F9211240BB60F922F938F939F9317
:1016C000EF93FF93E091E406F091E5068081E091CD
:1016D000EA06F091EB0682FD1DC090818091ED0637
:1016E0008F5F8F732091EE06821741F0E091ED0637
:1016F000F0E0EC52F94F958F8093ED06FF91EF915A
:101700009F918F912F910F900BBE0F900FBE0F9056
:101710001F9018958081F2CF1F920F920FB60F92F3
:1017200011240BB60F922F933F934F935F936F93B8
:101730007F938F939F93AF93BF93EF93FF938CEB24
:1017400095E00E948F06FF91EF91BF91AF919F911D
:101750008F917F916F915F914F913F912F910F905A
:101760000BBE0F900FBE0F901F9018951F920F92F7
:101770000FB60F9211240BB60F922F938F939F9356
:10178000EF93FF93E091CC05F091CD058081E0913E
:10179000D205F091D30582FD1DC090818091D505C1
:1017A0008F5F8F732091D605821741F0E091D505A8
:1017B000F0E0E454FA4F958F8093D505FF91EF91B7
:1017C0009F918F912F910F900BBE0F900FBE0F9096
:1017D0001F9018958081F2CF1F920F920FB60F9233
:1017E00011240BB60F922F933F934F935F936F93F8
:1017F0007F938F939F93AF93BF93EF93FF938091CA
:10180000B900887F803609F44DC008F040C08832A6
:1018100009F4A7C028F5803109F49BC0C8F48823D7
:1018200009F4F7C0883009F494C0FF91EF91BF919B
:10183000AF919F918F917F916F915F914F913F9168
:101840002F910F900BBE0F900FBE0F901F90189509
:10185000883109F486C0803241F780937A0514C03C
:10186000803409F49BC040F48033B9F38833E9F63F
:1018700080937A0585ECAEC0803509F483C0883545
:1018800009F494C0883489F60E94AA0ACECF883918
:1018900009F48AC038F5883729F050F4883611F0F9
:1018A000803719F683E080937B051092790555C047
:1018B000883809F479C0803919F0803809F0B5CF3B
:1018C00080917905803208F06FC0E091790581E060
:1018D0008E0F809379058091BB00F0E0E75AFA4FB4
:1018E00080833BC0803B39F0D0F4803A09F477C064
:1018F000883A09F09ACF84E080937B0510925805CE
:1019000010925705F0E0E0E019958091570581119C
:101910000FC081E0809357051092370509C0803CC5
:1019200009F4A8CF883C09F4A5CF883B09F07DCF06
:10193000E091580581E08E0F80935805F0E0E95C56
:10194000FA4F80818093BB00909158058091570594
:1019500029C08091A0058093BB0085EC8093BC00DA
:1019600064CF90919F0580919E05981758F5E0915E
:101970009F0581E08E0F80939F05F0E0E258FA4FBB
:101980008081E9CFE0919F0581E08E0F80939F05D4
:101990008091BB00F0E0E258FA4F808390919F0560
:1019A00080919E059817C8F285E8D8CFE0919F05F1
:1019B00081E08E0F80939F058091BB00F0E0E2589C
:1019C000FA4F808380917D0581115ECF81E0809305
:1019D0007C0584EA8093BC0010927B0526CF85ECC1
:1019E0008093BC0010927B0580917905803230F4A1
:1019F000E0917905F0E0E75AFA4F1082609179059D
:101A000070E089E595E0F0E0E0E019951092790545
:101A10000CCF10927A0538CF1F920F920FB60F920B
:101A200011240BB60F922F933F938F939F93AF93F5
:101A3000BF93CF93DF93EF93FF93E091A305F091D2
:101A4000A405309749F0A685B7859585868D81FFD9
:101A500014C08C918923A1F4FF91EF91DF91CF9174
:101A6000BF91AF919F918F913F912F910F900BBE9E
:101A70000F900FBE0F901F9018958C91892361F7DE
:101A8000A389B4899C918589809589238C938689C3
:101A900097890197F1F7208D318DC685D78588E02C
:101AA000D9011197F1F798818150D1F78091A20562
:101AB00090E001968F7399272091A105281779F05E
:101AC0009091A2058093A205828D938D0197F1F7E5
:101AD000A389B4898C919589892B8C93BDCF868DF0
:101AE0008160868FF1CF24ED36E01092D7061092F8
:101AF000D60688EE93E0A0E0B0E08093D8069093FD
:101B0000D906A093DA06B093DB064FE252E0509379
:101B1000D5064093D4066DEC70E07093E1066093B7
:101B2000E0066CEC70E07093E3066093E20668EC0C
:101B300070E07093E5066093E40669EC70E07093E2
:101B4000E7066093E6066AEC70E07093E90660933E
:101B5000E8066EEC70E07093EB066093EA06109274
:101B6000ED061092EE061092EF061092F00610921B
:101B7000BF051092BE058093C0059093C105A09348
:101B8000C205B093C3055093BD054093BC0545EC19
:101B900050E05093C9054093C80544EC50E0509381
:101BA000CB054093CA0540EC50E05093CD054093DF
:101BB000CC0541EC50E05093CF054093CE0542EC6C
:101BC00050E05093D1054093D00546EC50E050933F
:101BD000D3054093D2051092D5051092D6051092E8
:101BE000D7051092D80510925C0610925B06809380
:101BF0005D0690935E06A0935F06B093600681E455
:101C000092E090935A06809359061092AC07109276
:101C1000AB078DE592E09093AA078093A90787E22E
:101C20008093AD0784E18093B20784E08093B3078B
:101C30001092B407109278071092770710927A07E3
:101C40001092790740E450E050937C0740937B0763
:101C500010927E0710927D078FEF9FEFDC0180933B
:101C60007F0790938007A0938107B09382075093DA
:101C700084074093830740E051EE509386074093DA
:101C80008507109287071092880710928907109293
:101C90008A0780938B0790938C07A0938D07B0934E
:101CA0008E071092A6071092A5073093A8072093DD
:101CB000A7073093A4072093A307109267061092FA
:101CC0006B0610926A0610926C0683E592E0909380
:101CD000660680936506E1E8F6E0108214821382BE
:101CE0001582369686E0ED3BF807B9F789E092E079
:101CF0009093C8068093C70685E092E09093CA0649
:101D00008093C90684E08093CB068093CC068DE057
:101D100092E09093C6068093C5068AE090E0909387
:101D2000CE068093CD0684EF91E09093D006809309
:101D3000CF061092D3061092D2061092C1061092CE
:101D4000C2061092C3061092C4061092D1060895DE
:101D5000CF93DF93CDB7DEB7CF54D1090FB6F89448
:101D6000DEBF0FBECDBF789484B5826084BD84B5DC
:101D7000816084BD85B5826085BD85B5816085BD86
:101D800080916E00816080936E001092810080913E
:101D900081008260809381008091810081608093C6
:101DA0008100809180008160809380008091B100EB
:101DB00084608093B1008091B00081608093B00016
:101DC0008091910082608093910080919100816068
:101DD0008093910080919000816080939000809129
:101DE000A10082608093A1008091A1008160809316
:101DF000A1008091A00081608093A00080912101CA
:101E00008260809321018091210181608093210172
:101E10008091200181608093200180917A0084600C
:101E200080937A0080917A00826080937A0080911A
:101E30007A00816080937A0080917A008068809334
:101E40007A001092C100E091CC05F091CD0502E03E
:101E50000083E091C805F091C9051082E091CA05A0
:101E6000F091CB058FEC80831092D405E091D005E2
:101E7000F091D10516E01083E091CE05F091CF05E9
:101E8000808180618083E091CE05F091CF058081D3
:101E900088608083E091CE05F091CF0580818068D5
:101EA0008083E091CE05F091CF0580818F7D808386
:101EB00061E085E30E94970368EE73E080E090E0C4
:101EC0000E945805E091A707F091A807309731F1DB
:101ED000A089B1890C93A089B1891C92A485B5858C
:101EE0001C92A685B78580E18C93108EA489B58954
:101EF0001C93A289B3898C9180618C93A289B38948
:101F00008C9188608C93A289B3898C9180688C9322
:101F10000288F389E02D80818F7D8083E091A50781
:101F2000F091A607309709F499C0138E128E118E86
:101F3000108E178A168A82E490E0958F848F8485AC
:101F400096EF980F943048F02EEC280F243028F0AC
:101F500022EC280F283008F055C02FE030E0378BF6
:101F6000268B20E430E0318F208F27E230E0338F62
:101F7000228F943050F02EEC280F243030F022ECD9
:101F8000280FB0E0A0E0283010F4A8E6B0E02C91D3
:101F9000943028F032EC380F383008F462C131E068
:101FA000232B943048F09EEC980F943028F08E53F9
:101FB000B0E0A0E0883010F4A8E6B0E02C932485CF
:101FC00036EF320F343008F44EC18EEC820F84307D
:101FD00008F449C182EC820F883008F047C18DE6D1
:101FE00090E0948B838B343008F043C12650330B40
:101FF00081E001C0880F2A95EAF7858B848D958D45
:102000000197F1F7828D938D892B41F14091A305C2
:102010005091A405E417F50709F14115510569F040
:10202000DA0153962D913C91D9019C91DA01559694
:102030008C9180958923D9018C93868D8E7F868F94
:102040001092A2051092A105F093A405E093A305B8
:10205000A389B4898C919589892B8C9388E080938E
:10206000B40760E089EA97E00E941B088091AE0700
:1020700088608093AE0744E0F42EF092B10762E3EB
:1020800070E080E090E00E9458056091B40789EA12
:1020900097E00E941B0868EE73E080E090E00E94E9
:1020A000580560E389EA97E00E94CF090BE416E443
:1020B000C8010197F1F760E389EA97E00E94CF0930
:1020C000C8010197F1F760E389EA97E00E94CF0920
:1020D00083E592E00197F1F760E289EA97E00E94D8
:1020E000CF096091AE07606240E089EA97E00E9404
:1020F000E809F092AF0740E06CE089EA97E00E94BF
:10210000E8090E94FF0982E08093B00740E066E0A2
:1021100089EA97E00E94E80940E062E089EA97E0F6
:102120000E94E8098BE39FE10197F1F767E672E00F
:1021300089EA97E00E9406090E94740A60ED77E040
:1021400080E090E00E94580561E080E00E940A0A69
:1021500068E772E089EA97E00E94060960ED77E09F
:1021600080E090E00E94580562E080E00E940A0A48
:1021700065E872E089EA97E00E94060961E085E37C
:102180000E94650360ED77E080E090E00E945805D2
:102190000E94FF09AA24A3945FEEB52E1FEF8824A6
:1021A0008394912C70EB472E75E0572E0E949A096C
:1021B0008111EDC00E9463098111E9C086E0E5E26A
:1021C000F2E0DE01A65BBF4F01900D928A95E1F728
:1021D000BA82A982B1E0BF83E6E0F0E0F987E88740
:1021E0001B831C831D831E8386E0FE01E65BFF4F7D
:1021F000DE011A9601900D928A95E1F7CE010196C3
:102200000E941F02CE0101960E948A05811118C00A
:102210008F818730A9F48B859C85982789279827FB
:1022200090937207809371078D859E8598278927E3
:10223000982790937407809373078A85882371F198
:102240000E94FF0961E972E089EA97E00E940609AD
:1022500060ED77E080E090E00E9458050E94FF0961
:1022600090C034E09DCE8BE690E0BBCE90E080E065
:10227000B8CE88E0223309F4C0CE84E0233309F4D9
:10228000BCCE82E0243309F4B8CE82EC820F8830D1
:1022900018F42E53330BACCE81E0AFCE0E94FF0971
:1022A00060E080E00E940A0A6BEA72E089EA97E047
:1022B0000E94060961E080E00E940A0A62E273E07F
:1022C00089EA97E00E94060961E084E00E940A0A18
:1022D000609171077091720790E080E04AE00E947F
:1022E000150968E873E180E090E00E9458051092BB
:1022F000B1051092B0050E94FF0960E080E00E94E5
:102300000A0A6FEB72E089EA97E00E9406090E94D0
:102310003C0A8091B0059091B10560E0049709F006
:10232000EBC285E30E9465030E94FF0960E080E044
:102330000E940A0A6EEC72E089EA97E00E940609A0
:1023400061E080E00E940A0A66ED72E089EA97E0A7
:102350000E94060961E086E00E940A0A6091710706
:102360007091720790E080E04AE00E94150968E8E9
:1023700073E180E090E00E94580561E085E30E94EF
:1023800065036EE972E089EA97E00E9406090E94FF
:10239000D703082F8093B205682F8CEB95E00E943D
:1023A000B106013409F0DAC01092B1051092B005FF
:1023B0000E94FF0960E080E00E940A0A60EF72E07C
:1023C00089EA97E00E94060960EA7FE080E090E0F9
:1023D0000E9458050E94FF0960E080E00E940A0AFE
:1023E0006FEB72E089EA97E00E9406090E943C0ABE
:1023F0008091B0059091B105049709F0EEC3109259
:10240000B2050E94FF0964EF72E089EA97E00E943A
:1024100006096CED75E080E090E00E9458050E948E
:10242000FF0960E080E00E940A0A64E073E089EA44
:1024300097E00E94060904E63AE0332E0E942E053A
:10244000682E880F7708F0E36F1A710861E080E06A
:102450000E940A0AB301770C880B990B0E94850A27
:102460000E942E05E82E880FFF0820E3E21AF108EB
:1024700061E081E00E940A0AB701FF0C880B990B0A
:102480000E94850A0E942E05C82E880FDD0830E3C1
:10249000C31AD10861E082E00E940A0AB601DD0C8D
:1024A000880B990B0E94850A68EE73E080E090E04B
:1024B0000E945805E39CE02C1124069DE00C112499
:1024C000CE0C09F4BBCFC092A50526E0E22E0E94F7
:1024D000FF0969E173E089EA97E00E94060960E07C
:1024E0008DE00E940A0A6091A50570E090E080E00E
:1024F0004AE00E94150961E080E00E940A0A6EE944
:1025000072E089EA97E00E9406090E949A09811107
:10251000FCCF0E946309082F0E94FF09063009F4CE
:10252000F8C208F0FBC1002309F400C2013009F42D
:10253000F7C266E773E089EA97E00E9406096CED4E
:1025400075E080E090E00E94580560ED77E080E063
:1025500090E00E9458050E94FF09202E8091B2054C
:10256000823409F060C00E94FF0960E080E00E94B0
:102570000A0A62EF73E089EA97E00E9406090E9466
:10258000740A61E080E00E940A0A63E074E089EA6C
:1025900097E00E9406096CEA7DE080E090E00E94EE
:1025A000580562E080E00E940A0A65E174E089EA69
:1025B00097E00E94060960E085E30E9465030E949F
:1025C000740A62E370E080E090E00E9458050E9487
:1025D000FF0960E080E00E940A0A60E174E089EA95
:1025E00097E00E9406090E94740A68E873E180E09F
:1025F00090E00E94580561E085E30E9465030E9417
:10260000FF0960E080E00E940A0A0E94740A6EE1FD
:1026100074E089EA97E00E94060960ED77E080E0C7
:1026200090E00E9458058091B205843409F04FC0B3
:102630000E94FF096AE274E089EA97E00E940609B5
:102640006CED75E080E090E00E9458050E94FF0963
:1026500060E080E00E940A0A6FEB72E089EA97E08E
:102660000E9406090E943C0A8091B0059091B10534
:10267000049709F0C5C2BA82A982F1E0FF83998666
:1026800088861B831C831D831E838DE08A87CE0171
:1026900001960E941F02CE0101960E948A056CEDF0
:1026A00075E080E090E00E9458050E94FF0960E01C
:1026B00080E00E940A0A6BE374E089EA97E00E94D6
:1026C00006096CED75E080E090E00E94580580916D
:1026D000B205833409F0B8C06BE474E08CEB95E08C
:1026E0000E9406090E94FF0960E080E00E940A0A39
:1026F00062E574E089EA97E00E9406096CED75E0F6
:1027000080E090E00E9458050E94FF0960E080E0B0
:102710000E940A0A62E674E089EA97E00E940609CC
:102720000E943C0A8091B0059091B105049709F090
:1027300089C20E94FF0960E080E00E940A0A65E702
:1027400074E089EA97E00E94060962E080E00E9456
:102750000A0A9CEAE92E95E0F92E6701712C0E9485
:102760002E05D6018D936D0161E0872D0E940A0A26
:1027700065E672E089EA97E00E9406097394B4E086
:102780007B12EDCF0E94FF0960E080E00E940A0A00
:1027900068E874E089EA97E00E94060961E080E059
:1027A0000E940A0A88EA682E85E0782E6301312C9F
:1027B0000E942E05F60181936F0161E0832D0E9436
:1027C0000A0A65E672E089EA97E00E9406093394F6
:1027D000F4E03F12EDCF8091A6059091A705D701B7
:1027E0003D917D01F30121913F01321301C001961A
:1027F0004E145F04A1F79093A7058093A605049754
:1028000009F013C20E94FF0960E080E00E940A0AFA
:1028100069E974E089EA97E00E9406098091A805B9
:10282000809300028091A905809301028091AA05FE
:10283000809302028091AB05809303026CED75E0FA
:1028400080E090E00E9458058091B205833209F043
:1028500002C20E94FF0960E080E00E940A0A6FEB5A
:1028600074E089EA97E00E94060960ED77E080E075
:1028700090E00E9458050E94FF0960E080E00E94FD
:102880000A0A68EC74E089EA97E00E94060964EF9E
:1028900071E080E090E00E94580561E080E00E94D5
:1028A0000A0A66ED74E089EA97E00E94060964EF7F
:1028B00071E080E090E00E94580562E080E00E94B4
:1028C0000A0A6BED74E089EA97E00E94060964EF5A
:1028D00071E080E090E00E94580563E080E00E9493
:1028E0000A0A67EE74E089EA97E00E94060960ED43
:1028F00077E080E090E094C180E00E940A0A6DEDEC
:1029000072E089EA97E00E94060960ED77E080E0D6
:1029100090E00E9458050E94FF09A0CC073019F0F2
:10292000053109F006CE67E673E005CE66E273E096
:1029300089EA97E00E9406096CED75E080E090E07E
:102940000E9458050E94FF0960E080E00E940A0A88
:1029500066E373E089EA97E00E9406090E949A09FB
:102960008230E1F70E94FF0960E080E00E940A0ADD
:1029700063E873E089EA97E00E9406096CED75E070
:1029800080E090E00E9458050E949A098111FCCFD6
:102990000E94FF090E946309082F863009F4B5C020
:1029A00080F48823B9F0813009F4B6C060E080E09B
:1029B0000E940A0A66E773E089EA97E00E94060926
:1029C000C4CD873011F0853189F760E080E00E9446
:1029D0000A0AA9CF60E080E00E940A0A65E973E074
:1029E00089EA97E00E9406096CED75E080E090E0CE
:1029F0000E9458050E94FF0960E080E00E940A0AD8
:102A0000BA82A98281E08F83998688861B831C8382
:102A10001D831E8395E09A87CE0101960E941F02B6
:102A2000CE0101960E948A05811104C08F810A851A
:102A3000873009F001E0802F90E0009709F073C023
:102A400060E080E00E940A0A61EA73E089EA97E0A8
:102A50000E9406096CED75E080E090E00E94580548
:102A60008091A505BA82A982A1E0AF83E4E0F0E0FD
:102A7000F987E8871B831C831D831E83EA86AB8747
:102A80001C868D87CE0101960E941F02CE01019601
:102A90000E948A05811104C08F810A85873009F060
:102AA00001E0802F90E0009709F066C00E94FF09C6
:102AB00060E080E00E940A0A64EC73E089EA97E033
:102AC0000E94060961E080E00E940A0A64ED73E05A
:102AD00089EA97E00E94060961E085E00E940A0AFF
:102AE0006091A50570E090E080E04AE00E94150941
:102AF00068EB7BE080E090E00E9458050E94FF09AF
:102B0000022D011122CD212CE2CC60E080E00E9458
:102B10000A0A64E473E00FCD60E080E00E940A0AD4
:102B200063E573E008CD8130910591F460E080E0C9
:102B30000E940A0A63E573E089EA97E00E940609A9
:102B40006CED75E080E090E00E94580501E0FDCC5E
:102B50000A97B9F660E080E00E940A0A61EB73E030
:102B600089EA97E00E9406096CED75E080E090E04C
:102B70000E9458050AE0E9CC81309105D9F28B30EA
:102B8000910571F469ED73E089EA97E00E94060906
:102B90006CED75E080E090E00E9458050BE0D5CC2C
:102BA000489771F466EE73E089EA97E00E9406099F
:102BB0006CED75E080E090E00E94580508E1C5CC1E
:102BC00066E773E089EA97E00E9406096CED75E01C
:102BD00080E090E00E94580594CF60E080E00E9481
:102BE0000A0A6DED72E089EA97E00E94060960ED3D
:102BF00077E080E090E00E9458050E94FF09AECC8B
:102C00000E94FF0960E080E00E940A0A6DED72E018
:102C100089EA97E00E94060964EC79E080E090E0A0
:102C20000E9458050E941E07C1CA0E94FF0960E069
:102C300080E00E940A0A6BEA74E089EA97E00E9449
:102C40000609FCCD0E94FF0960E080E00E940A0AAC
:102C50006DED72E0F2CF0E94FF0960E080E00E941B
:102C60000A0A6FEE74E089EA97E00E94060961E0C3
:102C700080E00E940A0A61E075E089EA97E00E941C
:102C80000609D0CFA1E21A2EAA1BBB1BFD010DC065
:102C9000AA1FBB1FEE1FFF1FA217B307E407F5070C
:102CA00020F0A21BB30BE40BF50B661F771F881FE8
:102CB000991F1A9469F760957095809590959B017E
:102CC000AC01BD01CF010895EE0FFF1F881F8BBF20
:0C2CD0000790F691E02D1994F894FFCFC6
:102CDC00313233340005040302090807063132335C
:102CEC004134353642373839432A302344000040CA
:102CFC0000140054001B01000000A300000000B1F0
:102D0C000611063E06FE066F064D06610600000023
:102D1C0000EC07BF070309B107B807B507B20700F6
:102D2C00000000D30393036203000000007F0A112C
:102D3C0006030902092A00534D41525420444F4FB7
:102D4C0052204C4F434B2100494E495449414C4968
:102D5C005A494E4700494E495449414C495A4544F9
:102D6C000041434345532044454E49454400504C93
:102D7C004143452046494E4745520046494E47453A
:102D8C00525052494E54204D4154434845440045FD
:102D9C004E5445522050415353574F5244005745BF
:102DAC004C434F4D450055534552203A00494E4334
:102DBC004F52524543542050415353574F524400A5
:102DCC004E4557205553455220454E524F4C4C4D75
:102DDC00454E5400454E54455220554E495155458B
:102DEC00205553455220494400454E524F4C4C45BA
:102DFC00442049443A00494D41474520434F4E56E3
:102E0C0045525445440052454D4F56452046494E77
:102E1C0047455200494D41474520544F204D45539D
:102E2C00535900434F4D4D554E49434154494F4E14
:102E3C00204552524F5200494E56414C494420466F
:102E4C00494E47455200554E4B4F574E2045525216
:102E5C004F5200504C4143452053414D452046496B
:102E6C004E47455200494D4147452054414B454E34
:102E7C00005052494E5453204D415443484544212F
:102E8C000046494E47455253204D49534D415443FA
:102E9C00484544005052494E542053544F524544D7
:102EAC002041540049443A20004D454D4F52592081
:102EBC004C45414B2100464C415348204552524F02
:102ECC00520053595354454D204259504153534588
:102EDC00442100554E4C4F434B494E472E2E2E004D
:102EEC00444F4F5220554E4C4F434B454400444F9A
:102EFC004F52204C4F434B45440044454C455445A0
:102F0C002044415441424153453F004441544142C5
:102F1C0041534520454D505459210043616C6C651B
:102F2C0064004348414E47452050415353574F523C
:102F3C004400454E5445522043555252454E542060
:102F4C005041535300454E544552204E4557205046
:102F5C004153534F57524400434F4E4649524D2014
:102F6C0050415353574F52440050415353574F52B3
:102F7C00442055504441544544210050415353572B
:102F8C004F5244204D4953534D4154434821004323
:102F9C005245444954533A00524F484954204959D8
:102FAC00454E47415200414B494C00535552414A02
:102FBC0020504154494C0056494E4159414B005008
:102FCC004C4143452046494E474552204E4F5721D0
:0C2FDC000057414954494E472E2E2E004C
:00000001FF
